{
  "_format": "hh-sol-artifact-1",
  "contractName": "CoreMock",
  "sourceName": "contracts/mocks/Core.sol",
  "abi": [
    {
      "anonymous": false,
      "inputs": [
        {
          "indexed": false,
          "internalType": "bytes32",
          "name": "metadata",
          "type": "bytes32"
        },
        {
          "indexed": false,
          "internalType": "uint256",
          "name": "futureIndex",
          "type": "uint256"
        }
      ],
      "name": "FutureStarted",
      "type": "event"
    },
    {
      "anonymous": false,
      "inputs": [
        {
          "indexed": false,
          "internalType": "bytes32",
          "name": "metadata",
          "type": "bytes32"
        }
      ],
      "name": "NewStreamCreated",
      "type": "event"
    },
    {
      "anonymous": false,
      "inputs": [
        {
          "indexed": false,
          "internalType": "bytes32",
          "name": "metadata",
          "type": "bytes32"
        },
        {
          "indexed": false,
          "internalType": "address",
          "name": "user",
          "type": "address"
        },
        {
          "indexed": false,
          "internalType": "uint256",
          "name": "amount",
          "type": "uint256"
        }
      ],
      "name": "NewSubscription",
      "type": "event"
    },
    {
      "anonymous": false,
      "inputs": [
        {
          "indexed": false,
          "internalType": "bytes32",
          "name": "metadata",
          "type": "bytes32"
        },
        {
          "indexed": false,
          "internalType": "uint256",
          "name": "epoch",
          "type": "uint256"
        },
        {
          "indexed": false,
          "internalType": "uint256",
          "name": "amount",
          "type": "uint256"
        }
      ],
      "name": "PrincipleRedeemed",
      "type": "event"
    },
    {
      "anonymous": false,
      "inputs": [
        {
          "indexed": false,
          "internalType": "bytes32",
          "name": "metadata",
          "type": "bytes32"
        },
        {
          "indexed": false,
          "internalType": "address",
          "name": "user",
          "type": "address"
        },
        {
          "indexed": false,
          "internalType": "uint256",
          "name": "amount",
          "type": "uint256"
        }
      ],
      "name": "Unsubscribed",
      "type": "event"
    },
    {
      "inputs": [],
      "name": "futureFactory",
      "outputs": [
        {
          "internalType": "address",
          "name": "",
          "type": "address"
        }
      ],
      "stateMutability": "view",
      "type": "function"
    },
    {
      "inputs": [
        {
          "internalType": "bytes32",
          "name": "",
          "type": "bytes32"
        },
        {
          "internalType": "uint256",
          "name": "",
          "type": "uint256"
        }
      ],
      "name": "futureStream",
      "outputs": [
        {
          "internalType": "address",
          "name": "",
          "type": "address"
        }
      ],
      "stateMutability": "view",
      "type": "function"
    },
    {
      "inputs": [
        {
          "internalType": "string",
          "name": "_protocol",
          "type": "string"
        },
        {
          "internalType": "address",
          "name": "_underlying",
          "type": "address"
        },
        {
          "internalType": "uint256",
          "name": "_duration",
          "type": "uint256"
        }
      ],
      "name": "getStreamName",
      "outputs": [
        {
          "internalType": "bytes32",
          "name": "",
          "type": "bytes32"
        }
      ],
      "stateMutability": "pure",
      "type": "function"
    },
    {
      "inputs": [],
      "name": "owner",
      "outputs": [
        {
          "internalType": "address",
          "name": "",
          "type": "address"
        }
      ],
      "stateMutability": "view",
      "type": "function"
    },
    {
      "inputs": [
        {
          "internalType": "bytes32",
          "name": "_meta",
          "type": "bytes32"
        },
        {
          "internalType": "uint256",
          "name": "_lastEpoch",
          "type": "uint256"
        }
      ],
      "name": "redeemPrinciple",
      "outputs": [],
      "stateMutability": "nonpayable",
      "type": "function"
    },
    {
      "inputs": [
        {
          "internalType": "string",
          "name": "_protocol",
          "type": "string"
        },
        {
          "internalType": "address",
          "name": "_underlying",
          "type": "address"
        },
        {
          "internalType": "uint256",
          "name": "_durationBlocks",
          "type": "uint256"
        }
      ],
      "name": "registerNewStream",
      "outputs": [],
      "stateMutability": "nonpayable",
      "type": "function"
    },
    {
      "inputs": [
        {
          "internalType": "string",
          "name": "_protocol",
          "type": "string"
        },
        {
          "internalType": "address",
          "name": "_underlying",
          "type": "address"
        },
        {
          "internalType": "uint256",
          "name": "_durationBlocks",
          "type": "uint256"
        }
      ],
      "name": "startFuture",
      "outputs": [],
      "stateMutability": "nonpayable",
      "type": "function"
    },
    {
      "inputs": [
        {
          "internalType": "bytes32",
          "name": "_meta",
          "type": "bytes32"
        },
        {
          "internalType": "uint256",
          "name": "_amount",
          "type": "uint256"
        }
      ],
      "name": "subscribe",
      "outputs": [],
      "stateMutability": "nonpayable",
      "type": "function"
    },
    {
      "inputs": [
        {
          "internalType": "bytes32",
          "name": "_meta",
          "type": "bytes32"
        },
        {
          "internalType": "uint256",
          "name": "_amount",
          "type": "uint256"
        }
      ],
      "name": "unsubscribe",
      "outputs": [],
      "stateMutability": "nonpayable",
      "type": "function"
    },
    {
      "inputs": [
        {
          "internalType": "bytes32",
          "name": "",
          "type": "bytes32"
        }
      ],
      "name": "userDetailsPerStream",
      "outputs": [
        {
          "internalType": "bool",
          "name": "exists",
          "type": "bool"
        },
        {
          "internalType": "uint256",
          "name": "lastClaimedEpoch",
          "type": "uint256"
        }
      ],
      "stateMutability": "view",
      "type": "function"
    },
    {
      "inputs": [],
      "name": "vaultAddress",
      "outputs": [
        {
          "internalType": "address",
          "name": "",
          "type": "address"
        }
      ],
      "stateMutability": "view",
      "type": "function"
    }
  ],
  "bytecode": "0x608060405234801561001057600080fd5b506106a7806100206000396000f3fe608060405234801561001057600080fd5b50600436106100a95760003560e01c806364d592591161007157806364d59259146101d6578063861868511461029c5780638da5cb5b146102bf578063af110a04146102c7578063b0927efc1461037b578063b93bd1ab146103b3576100a9565b80630778f0ac146100ae5780631a76fe09146100d35780632720f0c31461018757806340f74566146101ab578063430bf08a146101ce575b600080fd5b6100d1600480360360408110156100c457600080fd5b50803590602001356103d6565b005b6100d1600480360360608110156100e957600080fd5b81019060208101813564010000000081111561010457600080fd5b82018360208201111561011657600080fd5b8035906020019184600183028401116401000000008311171561013857600080fd5b91908080601f016020809104026020016040519081016040528093929190818152602001838380828437600092019190915250929550506001600160a01b038335169350505060200135610419565b61018f610467565b604080516001600160a01b039092168252519081900360200190f35b6100d1600480360360408110156101c157600080fd5b5080359060200135610476565b61018f6104b9565b61028a600480360360608110156101ec57600080fd5b81019060208101813564010000000081111561020757600080fd5b82018360208201111561021957600080fd5b8035906020019184600183028401116401000000008311171561023b57600080fd5b91908080601f016020809104026020016040519081016040528093929190818152602001838380828437600092019190915250929550506001600160a01b0383351693505050602001356104c8565b60408051918252519081900360200190f35b61018f600480360360408110156102b257600080fd5b5080359060200135610575565b61018f6105aa565b6100d1600480360360608110156102dd57600080fd5b8101906020810181356401000000008111156102f857600080fd5b82018360208201111561030a57600080fd5b8035906020019184600183028401116401000000008311171561032c57600080fd5b91908080601f016020809104026020016040519081016040528093929190818152602001838380828437600092019190915250929550506001600160a01b0383351693505050602001356105b9565b6103986004803603602081101561039157600080fd5b503561060e565b60408051921515835260208301919091528051918290030190f35b6100d1600480360360408110156103c957600080fd5b508035906020013561062d565b6040805183815233602082015280820183905290517f9c3ab7e86c11d820cc311335294ebdf7299d8637d47253b930c4120b775d7cca9181900360600190a15050565b828160006104288386846104c8565b6040805182815290519192507f05894cae34eaa2546ae21abe5824fcd2c984d061c309cf241562281405ce3fe7919081900360200190a1505050505050565b6004546001600160a01b031681565b6040805183815233602082015280820183905290517fad3f1e826f40b7f0bd26a4160ec1c5c80edc86e57aa52100408ff485c24f72839181900360600190a15050565b6001546001600160a01b031681565b60008383836040516020018080602001846001600160a01b03168152602001838152602001828103825285818151815260200191508051906020019080838360005b8381101561052257818101518382015260200161050a565b50505050905090810190601f16801561054f5780820380516001836020036101000a031916815260200191505b509450505050506040516020818303038152906040528051906020012090509392505050565b6002602052816000526040600020818154811061058e57fe5b6000918252602090912001546001600160a01b03169150829050565b6000546001600160a01b031681565b8260006105c78285856104c8565b6040805182815260018601602082015281519293507f81fa0018ea062f080d931b5981e5a8dd54660cd274b3e76ba755d683f6df8992929081900390910190a15050505050565b6003602052600090815260409020805460019091015460ff9091169082565b604080518381526020810183905260648183015290517f52370b5cb7e3788b6311687596e62accd8b2fa6d3da833170e3d9ae7e5adec5d9181900360600190a1505056fea2646970667358221220843fbc4adc379089b04f15f44b1f8a25e4e6d0814be1e8846659e20b07e7c5b064736f6c634300060c0033",
  "linkReferences": {},
  "deployedLinkReferences": {}
}