{
  "_format": "hh-sol-artifact-1",
  "contractName": "CoreMock",
  "sourceName": "contracts/mocks/Core.sol",
  "abi": [
    {
      "anonymous": false,
      "inputs": [
        {
          "indexed": false,
          "internalType": "bytes32",
          "name": "metadata",
          "type": "bytes32"
        },
        {
          "indexed": false,
          "internalType": "uint256",
          "name": "futureIndex",
          "type": "uint256"
        }
      ],
      "name": "FutureStarted",
      "type": "event"
    },
    {
      "anonymous": false,
      "inputs": [
        {
          "indexed": false,
          "internalType": "bytes32",
          "name": "metadata",
          "type": "bytes32"
        }
      ],
      "name": "NewStreamCreated",
      "type": "event"
    },
    {
      "anonymous": false,
      "inputs": [
        {
          "indexed": false,
          "internalType": "bytes32",
          "name": "metadata",
          "type": "bytes32"
        },
        {
          "indexed": false,
          "internalType": "address",
          "name": "user",
          "type": "address"
        },
        {
          "indexed": false,
          "internalType": "uint256",
          "name": "amount",
          "type": "uint256"
        }
      ],
      "name": "NewSubscription",
      "type": "event"
    },
    {
      "anonymous": false,
      "inputs": [
        {
          "indexed": false,
          "internalType": "bytes32",
          "name": "metadata",
          "type": "bytes32"
        },
        {
          "indexed": false,
          "internalType": "uint256",
          "name": "epoch",
          "type": "uint256"
        },
        {
          "indexed": false,
          "internalType": "uint256",
          "name": "amount",
          "type": "uint256"
        }
      ],
      "name": "PrincipleRedeemed",
      "type": "event"
    },
    {
      "anonymous": false,
      "inputs": [
        {
          "indexed": false,
          "internalType": "bytes32",
          "name": "metadata",
          "type": "bytes32"
        },
        {
          "indexed": false,
          "internalType": "address",
          "name": "user",
          "type": "address"
        },
        {
          "indexed": false,
          "internalType": "uint256",
          "name": "amount",
          "type": "uint256"
        }
      ],
      "name": "Unsubscribed",
      "type": "event"
    },
    {
      "inputs": [],
      "name": "futureFactory",
      "outputs": [
        {
          "internalType": "address",
          "name": "",
          "type": "address"
        }
      ],
      "stateMutability": "view",
      "type": "function"
    },
    {
      "inputs": [
        {
          "internalType": "bytes32",
          "name": "",
          "type": "bytes32"
        },
        {
          "internalType": "uint256",
          "name": "",
          "type": "uint256"
        }
      ],
      "name": "futureStream",
      "outputs": [
        {
          "internalType": "address",
          "name": "",
          "type": "address"
        }
      ],
      "stateMutability": "view",
      "type": "function"
    },
    {
      "inputs": [],
      "name": "owner",
      "outputs": [
        {
          "internalType": "address",
          "name": "",
          "type": "address"
        }
      ],
      "stateMutability": "view",
      "type": "function"
    },
    {
      "inputs": [
        {
          "internalType": "bytes32",
          "name": "_meta",
          "type": "bytes32"
        },
        {
          "internalType": "uint256",
          "name": "_lastEpoch",
          "type": "uint256"
        }
      ],
      "name": "redeemPrinciple",
      "outputs": [],
      "stateMutability": "nonpayable",
      "type": "function"
    },
    {
      "inputs": [
        {
          "internalType": "string",
          "name": "_protocol",
          "type": "string"
        },
        {
          "internalType": "address",
          "name": "_underlying",
          "type": "address"
        },
        {
          "internalType": "uint256",
          "name": "_durationBlocks",
          "type": "uint256"
        }
      ],
      "name": "registerNewStream",
      "outputs": [],
      "stateMutability": "nonpayable",
      "type": "function"
    },
    {
      "inputs": [
        {
          "internalType": "string",
          "name": "_protocol",
          "type": "string"
        },
        {
          "internalType": "address",
          "name": "_underlying",
          "type": "address"
        },
        {
          "internalType": "uint256",
          "name": "_durationBlocks",
          "type": "uint256"
        }
      ],
      "name": "startFuture",
      "outputs": [],
      "stateMutability": "nonpayable",
      "type": "function"
    },
    {
      "inputs": [
        {
          "internalType": "bytes32",
          "name": "_meta",
          "type": "bytes32"
        },
        {
          "internalType": "uint256",
          "name": "_amount",
          "type": "uint256"
        }
      ],
      "name": "subscribe",
      "outputs": [],
      "stateMutability": "nonpayable",
      "type": "function"
    },
    {
      "inputs": [
        {
          "internalType": "address",
          "name": "a",
          "type": "address"
        }
      ],
      "name": "toBytes",
      "outputs": [
        {
          "internalType": "bytes32",
          "name": "b",
          "type": "bytes32"
        }
      ],
      "stateMutability": "pure",
      "type": "function"
    },
    {
      "inputs": [
        {
          "internalType": "bytes32",
          "name": "_meta",
          "type": "bytes32"
        },
        {
          "internalType": "uint256",
          "name": "_amount",
          "type": "uint256"
        }
      ],
      "name": "unsubscribe",
      "outputs": [],
      "stateMutability": "nonpayable",
      "type": "function"
    },
    {
      "inputs": [
        {
          "internalType": "bytes32",
          "name": "",
          "type": "bytes32"
        }
      ],
      "name": "userDetailsPerStream",
      "outputs": [
        {
          "internalType": "bool",
          "name": "exists",
          "type": "bool"
        },
        {
          "internalType": "uint256",
          "name": "lastClaimedEpoch",
          "type": "uint256"
        }
      ],
      "stateMutability": "view",
      "type": "function"
    },
    {
      "inputs": [],
      "name": "vaultAddress",
      "outputs": [
        {
          "internalType": "address",
          "name": "",
          "type": "address"
        }
      ],
      "stateMutability": "view",
      "type": "function"
    }
  ],
  "bytecode": "0x608060405234801561001057600080fd5b50610583806100206000396000f3fe608060405234801561001057600080fd5b50600436106100a95760003560e01c8063593b79fe11610071578063593b79fe146101d6578063861868511461020e5780638da5cb5b14610231578063af110a0414610239578063b0927efc146102ed578063b93bd1ab14610325576100a9565b80630778f0ac146100ae5780631a76fe09146100d35780632720f0c31461018757806340f74566146101ab578063430bf08a146101ce575b600080fd5b6100d1600480360360408110156100c457600080fd5b5080359060200135610348565b005b6100d1600480360360608110156100e957600080fd5b81019060208101813564010000000081111561010457600080fd5b82018360208201111561011657600080fd5b8035906020019184600183028401116401000000008311171561013857600080fd5b91908080601f016020809104026020016040519081016040528093929190818152602001838380828437600092019190915250929550506001600160a01b03833516935050506020013561038b565b61018f6103d7565b604080516001600160a01b039092168252519081900360200190f35b6100d1600480360360408110156101c157600080fd5b50803590602001356103e6565b61018f610429565b6101fc600480360360208110156101ec57600080fd5b50356001600160a01b0316610438565b60408051918252519081900360200190f35b61018f6004803603604081101561022457600080fd5b508035906020013561045c565b61018f610491565b6100d16004803603606081101561024f57600080fd5b81019060208101813564010000000081111561026a57600080fd5b82018360208201111561027c57600080fd5b8035906020019184600183028401116401000000008311171561029e57600080fd5b91908080601f016020809104026020016040519081016040528093929190818152602001838380828437600092019190915250929550506001600160a01b0383351693505050602001356104a0565b61030a6004803603602081101561030357600080fd5b50356104ea565b60408051921515835260208301919091528051918290030190f35b6100d16004803603604081101561033b57600080fd5b5080359060200135610509565b6040805183815233602082015280820183905290517f9c3ab7e86c11d820cc311335294ebdf7299d8637d47253b930c4120b775d7cca9181900360600190a15050565b8281600061039885610438565b6040805182815290519192507f05894cae34eaa2546ae21abe5824fcd2c984d061c309cf241562281405ce3fe7919081900360200190a1505050505050565b6004546001600160a01b031681565b6040805183815233602082015280820183905290517fad3f1e826f40b7f0bd26a4160ec1c5c80edc86e57aa52100408ff485c24f72839181900360600190a15050565b6001546001600160a01b031681565b604080516001600160a01b0392909216600560a21b18601483015260348201905290565b6002602052816000526040600020818154811061047557fe5b6000918252602090912001546001600160a01b03169150829050565b6000546001600160a01b031681565b827f81fa0018ea062f080d931b5981e5a8dd54660cd274b3e76ba755d683f6df89926104cb84610438565b604080519182526001850160208301528051918290030190a150505050565b6003602052600090815260409020805460019091015460ff9091169082565b604080518381526020810183905260648183015290517f52370b5cb7e3788b6311687596e62accd8b2fa6d3da833170e3d9ae7e5adec5d9181900360600190a1505056fea264697066735822122063a321ad8821c17dc4a61506c3d2f18976a031f2db9790e8aeaa1591f36d30bb64736f6c634300060c0033",
  "linkReferences": {},
  "deployedLinkReferences": {}
}