{
  "_format": "hh-sol-artifact-1",
  "contractName": "Core",
  "sourceName": "contracts/Core.sol",
  "abi": [
    {
      "inputs": [],
      "stateMutability": "nonpayable",
      "type": "constructor"
    },
    {
      "anonymous": false,
      "inputs": [
        {
          "indexed": false,
          "internalType": "bytes32",
          "name": "streamKey",
          "type": "bytes32"
        },
        {
          "indexed": false,
          "internalType": "uint256",
          "name": "futureIndex",
          "type": "uint256"
        }
      ],
      "name": "EpochStarted",
      "type": "event"
    },
    {
      "anonymous": false,
      "inputs": [
        {
          "indexed": false,
          "internalType": "bytes32",
          "name": "streamKey",
          "type": "bytes32"
        }
      ],
      "name": "NewStream",
      "type": "event"
    },
    {
      "anonymous": false,
      "inputs": [
        {
          "indexed": false,
          "internalType": "bytes32",
          "name": "streamKey",
          "type": "bytes32"
        },
        {
          "indexed": false,
          "internalType": "uint256",
          "name": "epoch",
          "type": "uint256"
        },
        {
          "indexed": false,
          "internalType": "uint256",
          "name": "amount",
          "type": "uint256"
        }
      ],
      "name": "PrincipleRedeemed",
      "type": "event"
    },
    {
      "anonymous": false,
      "inputs": [
        {
          "indexed": false,
          "internalType": "bytes32",
          "name": "streamKey",
          "type": "bytes32"
        },
        {
          "indexed": false,
          "internalType": "address",
          "name": "user",
          "type": "address"
        },
        {
          "indexed": false,
          "internalType": "uint256",
          "name": "amount",
          "type": "uint256"
        }
      ],
      "name": "Subscribed",
      "type": "event"
    },
    {
      "anonymous": false,
      "inputs": [
        {
          "indexed": false,
          "internalType": "bytes32",
          "name": "streamKey",
          "type": "bytes32"
        },
        {
          "indexed": false,
          "internalType": "address",
          "name": "user",
          "type": "address"
        },
        {
          "indexed": false,
          "internalType": "uint256",
          "name": "amount",
          "type": "uint256"
        }
      ],
      "name": "Unsubscribed",
      "type": "event"
    },
    {
      "anonymous": false,
      "inputs": [
        {
          "indexed": false,
          "internalType": "bytes32",
          "name": "streamKey",
          "type": "bytes32"
        },
        {
          "indexed": false,
          "internalType": "uint256",
          "name": "epoch",
          "type": "uint256"
        }
      ],
      "name": "YieldRedeemed",
      "type": "event"
    },
    {
      "inputs": [],
      "name": "aave",
      "outputs": [
        {
          "internalType": "bytes32",
          "name": "",
          "type": "bytes32"
        }
      ],
      "stateMutability": "view",
      "type": "function"
    },
    {
      "inputs": [
        {
          "internalType": "bytes32",
          "name": "_streamKey",
          "type": "bytes32"
        },
        {
          "internalType": "address",
          "name": "_user",
          "type": "address"
        }
      ],
      "name": "claimPlatformTokens",
      "outputs": [],
      "stateMutability": "nonpayable",
      "type": "function"
    },
    {
      "inputs": [],
      "name": "comp",
      "outputs": [
        {
          "internalType": "bytes32",
          "name": "",
          "type": "bytes32"
        }
      ],
      "stateMutability": "view",
      "type": "function"
    },
    {
      "inputs": [
        {
          "internalType": "bytes32",
          "name": "_userKey",
          "type": "bytes32"
        },
        {
          "internalType": "uint256",
          "name": "_epoch",
          "type": "uint256"
        }
      ],
      "name": "getClaimableBalance",
      "outputs": [
        {
          "internalType": "uint256",
          "name": "",
          "type": "uint256"
        }
      ],
      "stateMutability": "view",
      "type": "function"
    },
    {
      "inputs": [
        {
          "internalType": "bytes32",
          "name": "_streamKey",
          "type": "bytes32"
        }
      ],
      "name": "getCurrentEpoch",
      "outputs": [
        {
          "internalType": "uint256",
          "name": "",
          "type": "uint256"
        }
      ],
      "stateMutability": "view",
      "type": "function"
    },
    {
      "inputs": [
        {
          "internalType": "bytes32",
          "name": "_streamKey",
          "type": "bytes32"
        },
        {
          "internalType": "uint256",
          "name": "_epoch",
          "type": "uint256"
        }
      ],
      "name": "getEpochAddress",
      "outputs": [
        {
          "internalType": "address",
          "name": "",
          "type": "address"
        }
      ],
      "stateMutability": "view",
      "type": "function"
    },
    {
      "inputs": [
        {
          "internalType": "bytes32",
          "name": "_streamKey",
          "type": "bytes32"
        }
      ],
      "name": "getNextEpoch",
      "outputs": [
        {
          "internalType": "uint256",
          "name": "",
          "type": "uint256"
        }
      ],
      "stateMutability": "view",
      "type": "function"
    },
    {
      "inputs": [
        {
          "internalType": "bytes32",
          "name": "_streamKey",
          "type": "bytes32"
        }
      ],
      "name": "getOT",
      "outputs": [
        {
          "internalType": "address",
          "name": "",
          "type": "address"
        }
      ],
      "stateMutability": "view",
      "type": "function"
    },
    {
      "inputs": [
        {
          "internalType": "string",
          "name": "_protocol",
          "type": "string"
        },
        {
          "internalType": "address",
          "name": "_underlying",
          "type": "address"
        },
        {
          "internalType": "uint256",
          "name": "_duration",
          "type": "uint256"
        }
      ],
      "name": "getStreamKey",
      "outputs": [
        {
          "internalType": "bytes32",
          "name": "",
          "type": "bytes32"
        }
      ],
      "stateMutability": "pure",
      "type": "function"
    },
    {
      "inputs": [
        {
          "internalType": "address",
          "name": "_user",
          "type": "address"
        },
        {
          "internalType": "bytes32",
          "name": "_streamKey",
          "type": "bytes32"
        }
      ],
      "name": "getUserKey",
      "outputs": [
        {
          "internalType": "bytes32",
          "name": "",
          "type": "bytes32"
        }
      ],
      "stateMutability": "pure",
      "type": "function"
    },
    {
      "inputs": [
        {
          "internalType": "bytes32",
          "name": "_streamKey",
          "type": "bytes32"
        },
        {
          "internalType": "uint256",
          "name": "_epoch",
          "type": "uint256"
        }
      ],
      "name": "getYT",
      "outputs": [
        {
          "internalType": "address",
          "name": "",
          "type": "address"
        }
      ],
      "stateMutability": "view",
      "type": "function"
    },
    {
      "inputs": [
        {
          "internalType": "bytes32",
          "name": "_streamKey",
          "type": "bytes32"
        },
        {
          "internalType": "uint256",
          "name": "_epoch",
          "type": "uint256"
        }
      ],
      "name": "getYieldGenerated",
      "outputs": [
        {
          "internalType": "uint256",
          "name": "",
          "type": "uint256"
        }
      ],
      "stateMutability": "view",
      "type": "function"
    },
    {
      "inputs": [
        {
          "internalType": "bytes32",
          "name": "_streamKey",
          "type": "bytes32"
        },
        {
          "internalType": "address",
          "name": "_user",
          "type": "address"
        }
      ],
      "name": "hasClaimedPlatformTokens",
      "outputs": [
        {
          "internalType": "bool",
          "name": "",
          "type": "bool"
        }
      ],
      "stateMutability": "view",
      "type": "function"
    },
    {
      "inputs": [
        {
          "internalType": "bytes32",
          "name": "_streamKey",
          "type": "bytes32"
        }
      ],
      "name": "isStreamInitiazed",
      "outputs": [
        {
          "internalType": "bool",
          "name": "",
          "type": "bool"
        }
      ],
      "stateMutability": "view",
      "type": "function"
    },
    {
      "inputs": [],
      "name": "owner",
      "outputs": [
        {
          "internalType": "address",
          "name": "",
          "type": "address"
        }
      ],
      "stateMutability": "view",
      "type": "function"
    },
    {
      "inputs": [
        {
          "internalType": "bytes32",
          "name": "_streamKey",
          "type": "bytes32"
        },
        {
          "internalType": "uint256",
          "name": "_epoch",
          "type": "uint256"
        }
      ],
      "name": "redeemPrinciple",
      "outputs": [],
      "stateMutability": "nonpayable",
      "type": "function"
    },
    {
      "inputs": [
        {
          "internalType": "bytes32",
          "name": "_streamKey",
          "type": "bytes32"
        },
        {
          "internalType": "uint256",
          "name": "_epoch",
          "type": "uint256"
        }
      ],
      "name": "redeemYield",
      "outputs": [],
      "stateMutability": "nonpayable",
      "type": "function"
    },
    {
      "inputs": [
        {
          "internalType": "string",
          "name": "_protocol",
          "type": "string"
        },
        {
          "internalType": "address",
          "name": "_underlying",
          "type": "address"
        },
        {
          "internalType": "uint256",
          "name": "_durationBlocks",
          "type": "uint256"
        }
      ],
      "name": "registerNewStream",
      "outputs": [],
      "stateMutability": "nonpayable",
      "type": "function"
    },
    {
      "inputs": [
        {
          "internalType": "string",
          "name": "_protocol",
          "type": "string"
        },
        {
          "internalType": "address",
          "name": "_underlying",
          "type": "address"
        },
        {
          "internalType": "uint256",
          "name": "_durationBlocks",
          "type": "uint256"
        },
        {
          "internalType": "bytes",
          "name": "_bytecode",
          "type": "bytes"
        }
      ],
      "name": "startEpoch",
      "outputs": [],
      "stateMutability": "nonpayable",
      "type": "function"
    },
    {
      "inputs": [
        {
          "internalType": "bytes32",
          "name": "",
          "type": "bytes32"
        },
        {
          "internalType": "uint256",
          "name": "",
          "type": "uint256"
        }
      ],
      "name": "streams",
      "outputs": [
        {
          "internalType": "address",
          "name": "",
          "type": "address"
        }
      ],
      "stateMutability": "view",
      "type": "function"
    },
    {
      "inputs": [
        {
          "internalType": "bytes32",
          "name": "_streamKey",
          "type": "bytes32"
        },
        {
          "internalType": "uint256",
          "name": "_amountUnderlying",
          "type": "uint256"
        }
      ],
      "name": "subscribe",
      "outputs": [
        {
          "internalType": "uint256",
          "name": "",
          "type": "uint256"
        },
        {
          "internalType": "uint256",
          "name": "",
          "type": "uint256"
        }
      ],
      "stateMutability": "nonpayable",
      "type": "function"
    },
    {
      "inputs": [],
      "name": "treasuryAddress",
      "outputs": [
        {
          "internalType": "address",
          "name": "",
          "type": "address"
        }
      ],
      "stateMutability": "view",
      "type": "function"
    },
    {
      "inputs": [
        {
          "internalType": "bytes32",
          "name": "_streamKey",
          "type": "bytes32"
        },
        {
          "internalType": "uint256",
          "name": "_otAmountToBurn",
          "type": "uint256"
        }
      ],
      "name": "unsubscribe",
      "outputs": [],
      "stateMutability": "nonpayable",
      "type": "function"
    },
    {
      "inputs": [
        {
          "internalType": "bytes32",
          "name": "",
          "type": "bytes32"
        }
      ],
      "name": "userDetailsPerStream",
      "outputs": [
        {
          "internalType": "bool",
          "name": "exists",
          "type": "bool"
        },
        {
          "internalType": "uint256",
          "name": "lastClaimedEpochID",
          "type": "uint256"
        }
      ],
      "stateMutability": "view",
      "type": "function"
    },
    {
      "inputs": [],
      "name": "yearn",
      "outputs": [
        {
          "internalType": "bytes32",
          "name": "",
          "type": "bytes32"
        }
      ],
      "stateMutability": "view",
      "type": "function"
    }
  ],
  "bytecode": "0x60c06040523480156200001157600080fd5b503360601b60805260405162000027906200005b565b604051809103906000f08015801562000044573d6000803e3d6000fd5b5060601b6001600160601b03191660a05262000069565b61354e80620028fd83390190565b60805160601c60a05160601c61280d620000f06000396000818161038f0152818161040e0152818161066101528181610b5a01528181610d7701528181610e7e01528181610f4c015281816111fe0152818161152a0152818161174901528181611bf401528181611e340152611f220152600081816102cb01526108b3015261280d6000f3fe608060405234801561001057600080fd5b50600436106101735760003560e01c8063753ced2f116100de578063bd95dfbc11610097578063c5f956af11610071578063c5f956af1461038a578063df9ff772146103b1578063e3d41e5d146103c4578063fee46566146103d757600080fd5b8063bd95dfbc14610344578063c2449e4214610357578063c5f360f01461036a57600080fd5b8063753ced2f146102985780637acf4dfe146102ab578063819faf7b146102be5780638da5cb5b146102c6578063b0927efc146102ed578063b93bd1ab1461033157600080fd5b80632c1e036d116101305780632c1e036d1461021657806340f745661461023957806343ff7ff21461024c578063496a46ed1461025f5780634c675c0a146102725780636b7331331461028557600080fd5b80630778f0ac146101785780630bbac951146101a5578063109d0af8146101bb57806311b90f82146101c35780631a76fe09146101ee5780632bf33c8614610203575b600080fd5b61018b610186366004612390565b6103ea565b604080519283526020830191909152015b60405180910390f35b6101ad6107c0565b60405190815260200161019c565b6101ad6107e8565b6101d66101d1366004612390565b6107f7565b6040516001600160a01b03909116815260200161019c565b6102016101fc3660046123b1565b6108a8565b005b6101ad6102113660046122fe565b610c0e565b610229610224366004612349565b610c5c565b604051901515815260200161019c565b610201610247366004612390565b610c80565b6101ad61025a366004612390565b610f2c565b6101ad61026d366004612390565b610fd5565b610201610280366004612361565b611018565b6101d6610293366004612349565b6111e5565b6101ad6102a63660046123b1565b611286565b6102296102b9366004612361565b6112bc565b6101ad6112f4565b6101d67f000000000000000000000000000000000000000000000000000000000000000081565b61031a6102fb366004612349565b6001602081905260009182526040909120805491015460ff9091169082565b60408051921515835260208301919091520161019c565b61020161033f366004612390565b611303565b610201610352366004612409565b6115ce565b6101d6610365366004612390565b61196c565b6101ad610378366004612349565b60009081526020819052604090205490565b6101d67f000000000000000000000000000000000000000000000000000000000000000081565b6102016103bf366004612390565b6119a4565b6101d66103d2366004612390565b611d56565b6101ad6103e5366004612349565b611da0565b60008060006103f885611da0565b905060006104068683611d56565b90506104b2337f000000000000000000000000000000000000000000000000000000000000000087846001600160a01b0316636f307dc36040518163ffffffff1660e01b8152600401602060405180830381600087803b15801561046957600080fd5b505af115801561047d573d6000803e3d6000fd5b505050506040513d601f19601f820116820180604052508101906104a191906122e2565b6001600160a01b0316929190611dbb565b6000816001600160a01b031663285939846040518163ffffffff1660e01b815260040160206040518083038186803b1580156104ed57600080fd5b505afa158015610501573d6000803e3d6000fd5b505050506040513d601f19601f82011682018060405250810190610525919061249b565b90506000811561063b576000836001600160a01b03166304aa50ad6040518163ffffffff1660e01b815260040160206040518083038186803b15801561056a57600080fd5b505afa15801561057e573d6000803e3d6000fd5b505050506040513d601f19601f820116820180604052508101906105a291906122e2565b6001600160a01b03166318160ddd6040518163ffffffff1660e01b815260040160206040518083038186803b1580156105da57600080fd5b505afa1580156105ee573d6000803e3d6000fd5b505050506040513d601f19601f82011682018060405250810190610612919061249b565b90508061061f8985612716565b61062991906126f6565b6106339089612735565b91505061063e565b50855b604051632851debb60e21b815233600482015260248101899052604481018290527f00000000000000000000000000000000000000000000000000000000000000006001600160a01b03169063a1477aec90606401600060405180830381600087803b1580156106ad57600080fd5b505af11580156106c1573d6000803e3d6000fd5b505060405163c952d71360e01b8152336004820152602481018a90526001600160a01b038616925063c952d7139150604401600060405180830381600087803b15801561070d57600080fd5b505af1158015610721573d6000803e3d6000fd5b50505050600060016000610735338c610c0e565b8152602081019190915260400160002060018101869055805490915060ff1615610768576107638933611018565b610774565b805460ff191660011781555b604080518a81523360208201529081018990527fe22e8c2d8a284063fec10f270bc3c776ffb40bcf816b73eef36354d5f3d7b3d49060600160405180910390a150979596505050505050565b6040516020016107cf90612653565b6040516020818303038152906040528051906020012081565b6040516020016107cf90612672565b60008082116108215760405162461bcd60e51b815260040161081890612690565b60405180910390fd5b600061082d8484611d56565b9050806001600160a01b03166304aa50ad6040518163ffffffff1660e01b815260040160206040518083038186803b15801561086857600080fd5b505afa15801561087c573d6000803e3d6000fd5b505050506040513d601f19601f820116820180604052508101906108a091906122e2565b949350505050565b336001600160a01b037f000000000000000000000000000000000000000000000000000000000000000016146109115760405162461bcd60e51b815260206004820152600e60248201526d22a9292fa7a7262cafa7aba722a960911b6044820152606401610818565b82600081604051602001610925919061255d565b60405160208183030381529060405280519060200120905060405160200161094c906126c0565b60405160208183030381529060405280519060200120811480610992575060405160200161097990612672565b6040516020818303038152906040528051906020012081145b806109c057506040516020016109a790612653565b6040516020818303038152906040528051906020012081145b610a075760405162461bcd60e51b815260206004820152601860248201527711549497d55394d5541413d495115117d41493d513d0d3d360421b6044820152606401610818565b6001600160a01b038416610a5d5760405162461bcd60e51b815260206004820152601860248201527f4552525f494e56414c49445f414444524553535f5a45524f00000000000000006044820152606401610818565b60008311610aad5760405162461bcd60e51b815260206004820152601960248201527f4552525f494e56414c49445f4455524154494f4e5f5a45524f000000000000006044820152606401610818565b6000610aba868686611286565b60008181526020819052604090205490915015610b195760405162461bcd60e51b815260206004820152601960248201527f4552525f53545245414d5f414c52454144595f455849535453000000000000006044820152606401610818565b600081815260208181526040808320805460018101825581855292842090920180546001600160a01b031916905591839052549051632095d03360e21b81527f00000000000000000000000000000000000000000000000000000000000000006001600160a01b03169163825740cc91610b9b918a918a918a916004016125e4565b600060405180830381600087803b158015610bb557600080fd5b505af1158015610bc9573d6000803e3d6000fd5b505050507faea28fae59d8f2662cf8713097b1597b168af95846a194d5c544f34332cb4b2a81604051610bfe91815260200190565b60405180910390a1505050505050565b60008183604051602001610c3e92919091825260601b6bffffffffffffffffffffffff1916602082015260340190565b60405160208183030381529060405280519060200120905092915050565b60008181526020819052604081205415610c7857506001919050565b506000919050565b80610ccd5760405162461bcd60e51b815260206004820152601760248201527f4552525f494e56414c49445f414d4f554e545f5a45524f0000000000000000006044820152606401610818565b81610cea5760405162461bcd60e51b81526004016108189061261c565b6000610cf63384610c0e565b600081815260016020526040902080549192509060ff16610d4e5760405162461bcd60e51b815260206004820152601260248201527111549497d554d15497d393d517d193d5539160721b6044820152606401610818565b610d5884336112bc565b610d6657610d668433611018565b6000610d7185611da0565b905060007f00000000000000000000000000000000000000000000000000000000000000006001600160a01b031663f47f6ab487610daf8986611d56565b6040516001600160e01b031960e085901b16815260048101929092526001600160a01b0316602482015260440160206040518083038186803b158015610df457600080fd5b505afa158015610e08573d6000803e3d6000fd5b505050506040513d601f19601f82011682018060405250810190610e2c919061249b565b90506000610e3a8287612716565b600086815260016020908152604080832087845260020190915290208190559050604051634e2a5a0560e01b815260048101889052602481018790523360448201527f00000000000000000000000000000000000000000000000000000000000000006001600160a01b031690634e2a5a0590606401600060405180830381600087803b158015610eca57600080fd5b505af1158015610ede573d6000803e3d6000fd5b5050604080518a81523360208201529081018990527fad3f1e826f40b7f0bd26a4160ec1c5c80edc86e57aa52100408ff485c24f72839250606001905060405180910390a150505050505050565b60405163f86f637d60e01b815260048101839052602481018290526000907f00000000000000000000000000000000000000000000000000000000000000006001600160a01b03169063f86f637d9060440160206040518083038186803b158015610f9657600080fd5b505afa158015610faa573d6000803e3d6000fd5b505050506040513d601f19601f82011682018060405250810190610fce919061249b565b9392505050565b6000808211610ff65760405162461bcd60e51b815260040161081890612690565b5060009182526001602090815260408084209284526002909201905290205490565b6000600160006110288486610c0e565b81526020019081526020016000209050806001015461104684611da0565b141561105157505050565b60008160010154600161106491906126de565b90505b61107084611da0565b81116111b45760008481526020819052604090208054829081106110a457634e487b7160e01b600052603260045260246000fd5b6000918252602090912001546001600160a01b031663b45a7df3846110c8876111e5565b6040516370a0823160e01b81526001600160a01b03888116600483015291909116906370a082319060240160206040518083038186803b15801561110b57600080fd5b505afa15801561111f573d6000803e3d6000fd5b505050506040513d601f19601f82011682018060405250810190611143919061249b565b6040516001600160e01b031960e085901b1681526001600160a01b0390921660048301526024820152604401600060405180830381600087803b15801561118957600080fd5b505af115801561119d573d6000803e3d6000fd5b5050505080806111ac90612778565b915050611067565b506111be83611da0565b600160006111cc8587610c0e565b8152602081019190915260400160002060010155505050565b604051631c69b8b360e31b8152600481018290526000907f00000000000000000000000000000000000000000000000000000000000000006001600160a01b03169063e34dc5989060240160206040518083038186803b15801561124857600080fd5b505afa15801561125c573d6000803e3d6000fd5b505050506040513d601f19601f8201168201806040525081019061128091906122e2565b92915050565b600083838360405160200161129d93929190612570565b6040516020818303038152906040528051906020012090509392505050565b600080600160006112cd8587610c0e565b8152602001908152602001600020905080600101546112eb85611da0565b14949350505050565b6040516020016107cf906126c0565b806113205760405162461bcd60e51b815260040161081890612690565b8161133d5760405162461bcd60e51b81526004016108189061261c565b60006113493384610c0e565b60008181526001602052604090205490915060ff166113aa5760405162461bcd60e51b815260206004820152601a60248201527f4552525f535542534352495054494f4e5f4e4f545f464f554e440000000000006044820152606401610818565b60006113b68484611d56565b9050806001600160a01b031663e184c9be6040518163ffffffff1660e01b8152600401602060405180830381600087803b1580156113f357600080fd5b505af1158015611407573d6000803e3d6000fd5b505050506040513d601f19601f8201168201806040525081019061142b919061249b565b4310156114725760405162461bcd60e51b815260206004820152601560248201527411549497d15413d0d217d393d517d3505515549151605a1b6044820152606401610818565b600061147e8385610fd5565b905080156115c7576000826001600160a01b0316636f307dc36040518163ffffffff1660e01b8152600401602060405180830381600087803b1580156114c357600080fd5b505af11580156114d7573d6000803e3d6000fd5b505050506040513d601f19601f820116820180604052508101906114fb91906122e2565b604051636ce5768960e11b81526001600160a01b038083166004830152336024830152604482018590529192507f00000000000000000000000000000000000000000000000000000000000000009091169063d9caed1290606401600060405180830381600087803b15801561157057600080fd5b505af1158015611584573d6000803e3d6000fd5b505060408051898152602081018990529081018590527f52370b5cb7e3788b6311687596e62accd8b2fa6d3da833170e3d9ae7e5adec5d92506060019050610bfe565b5050505050565b836000816040516020016115e2919061255d565b604051602081830303815290604052805190602001209050604051602001611609906126c0565b6040516020818303038152906040528051906020012081148061164f575060405160200161163690612672565b6040516020818303038152906040528051906020012081145b8061167d575060405160200161166490612653565b6040516020818303038152906040528051906020012081145b6116c45760405162461bcd60e51b815260206004820152601860248201527711549497d55394d5541413d495115117d41493d513d0d3d360421b6044820152606401610818565b60006116d1878787611286565b6000818152602081905260408120549192506116f0836103d281611da0565b90506116fb83610c5c565b6117475760405162461bcd60e51b815260206004820152601a60248201527f4552525f53545245414d5f4e4f545f494e495449414c495a45440000000000006044820152606401610818565b7f0000000000000000000000000000000000000000000000000000000000000000600183111561189c5743826001600160a01b031663e184c9be6040518163ffffffff1660e01b8152600401602060405180830381600087803b1580156117ad57600080fd5b505af11580156117c1573d6000803e3d6000fd5b505050506040513d601f19601f820116820180604052508101906117e5919061249b565b106118325760405162461bcd60e51b815260206004820181905260248201527f4552525f53545245414d5f434f4e5441494e535f4143544956455f45504f43486044820152606401610818565b6040516398d4bab160e01b815260048101859052602481018490526001600160a01b0383811660448301528216906398d4bab190606401600060405180830381600087803b15801561188357600080fd5b505af1158015611897573d6000803e3d6000fd5b505050505b60405163b1dbf3dd60e01b8152600481018590526000906001600160a01b0383169063b1dbf3dd9060240160206040518083038186803b1580156118df57600080fd5b505afa1580156118f3573d6000803e3d6000fd5b505050506040513d601f19601f82011682018060405250810190611917919061249b565b90506119268b8b8b848c611e1b565b60408051868152602081018690527f45cff685e401e07e0edef21bc25fbf844f92797dc908dd4f60bf2cc4e76ba252910160405180910390a15050505050505050505050565b6000602052816000526040600020818154811061198857600080fd5b6000918252602090912001546001600160a01b03169150829050565b8181600080600084815260200190815260200160002082815481106119d957634e487b7160e01b600052603260045260246000fd5b9060005260206000200160009054906101000a90046001600160a01b0316905043816001600160a01b031663e184c9be6040518163ffffffff1660e01b8152600401602060405180830381600087803b158015611a3557600080fd5b505af1158015611a49573d6000803e3d6000fd5b505050506040513d601f19601f82011682018060405250810190611a6d919061249b565b1115611ab35760405162461bcd60e51b815260206004820152601560248201527411549497d15413d0d217d393d517d1561412549151605a1b6044820152606401610818565b60008411611ad35760405162461bcd60e51b815260040161081890612690565b84611af05760405162461bcd60e51b81526004016108189061261c565b6000611afc8686611d56565b90506000816001600160a01b0316634be5e79d6040518163ffffffff1660e01b815260040160206040518083038186803b158015611b3957600080fd5b505afa158015611b4d573d6000803e3d6000fd5b505050506040513d601f19601f82011682018060405250810190611b71919061249b565b6040516312663a5960e31b81523360048201529091506000906001600160a01b03841690639331d2c890602401602060405180830381600087803b158015611bb857600080fd5b505af1158015611bcc573d6000803e3d6000fd5b505050506040513d601f19601f82011682018060405250810190611bf0919061249b565b90507f00000000000000000000000000000000000000000000000000000000000000006001600160a01b0316633366cfa389898486886001600160a01b0316636f307dc36040518163ffffffff1660e01b8152600401602060405180830381600087803b158015611c6057600080fd5b505af1158015611c74573d6000803e3d6000fd5b505050506040513d601f19601f82011682018060405250810190611c9891906122e2565b6040516001600160e01b031960e088901b16815260048101959095526024850193909352604484019190915260648301526001600160a01b031660848201523360a482015260c401600060405180830381600087803b158015611cfa57600080fd5b505af1158015611d0e573d6000803e3d6000fd5b5050604080518b8152602081018b90527ff14eb2596b77b9dc1268d92100d81619c716e6e73ee460841d220c0c19a83b8d935001905060405180910390a15050505050505050565b6000828152602081905260408120805483908110611d8457634e487b7160e01b600052603260045260246000fd5b6000918252602090912001546001600160a01b03169392505050565b60008181526020819052604081205461128090600190612735565b604080516001600160a01b0385811660248301528416604482015260648082018490528251808303909101815260849091019091526020810180516001600160e01b03166323b872dd60e01b179052611e15908590611fff565b50505050565b6000611e28868686611286565b90506000611e598787877f0000000000000000000000000000000000000000000000000000000000000000876120d6565b9050306001600160a01b0316816001600160a01b0316638da5cb5b6040518163ffffffff1660e01b815260040160206040518083038186803b158015611e9e57600080fd5b505afa158015611eb2573d6000803e3d6000fd5b505050506040513d601f19601f82011682018060405250810190611ed691906122e2565b6001600160a01b031614611f205760405162461bcd60e51b815260206004820152601160248201527008aa4a4be929cac82989288be8aa09e869607b1b6044820152606401610818565b7f00000000000000000000000000000000000000000000000000000000000000006001600160a01b031663ae5ce11a8888888589611f6a8960009081526020819052604090205490565b6040518763ffffffff1660e01b8152600401611f8b9695949392919061259e565b600060405180830381600087803b158015611fa557600080fd5b505af1158015611fb9573d6000803e3d6000fd5b5050506000928352506020828152604083208054600181018255908452922090910180546001600160a01b0319166001600160a01b039092169190911790555050505050565b6000612054826040518060400160405280602081526020017f5361666545524332303a206c6f772d6c6576656c2063616c6c206661696c6564815250856001600160a01b03166121429092919063ffffffff16565b8051909150156120d157808060200190518101906120729190612329565b6120d15760405162461bcd60e51b815260206004820152602a60248201527f5361666545524332303a204552433230206f7065726174696f6e20646964206e6044820152691bdd081cdd58d8d9595960b21b6064820152608401610818565b505050565b6000806120e4878787611286565b905060006120f182611da0565b90506000308989898986604051602001612110969594939291906124df565b6040516020818303038152906040528051906020012090506000818651602088016000f59a9950505050505050505050565b60606108a0848460008585843b61219b5760405162461bcd60e51b815260206004820152601d60248201527f416464726573733a2063616c6c20746f206e6f6e2d636f6e74726163740000006044820152606401610818565b600080866001600160a01b031685876040516121b79190612541565b60006040518083038185875af1925050503d80600081146121f4576040519150601f19603f3d011682016040523d82523d6000602084013e6121f9565b606091505b5091509150612209828286612214565b979650505050505050565b60608315612223575081610fce565b8251156122335782518084602001fd5b8160405162461bcd60e51b8152600401610818919061255d565b600067ffffffffffffffff80841115612268576122686127a9565b604051601f8501601f19908116603f01168101908282118183101715612290576122906127a9565b816040528093508581528686860111156122a957600080fd5b858560208301376000602087830101525050509392505050565b600082601f8301126122d3578081fd5b610fce8383356020850161224d565b6000602082840312156122f3578081fd5b8151610fce816127bf565b60008060408385031215612310578081fd5b823561231b816127bf565b946020939093013593505050565b60006020828403121561233a578081fd5b81518015158114610fce578182fd5b60006020828403121561235a578081fd5b5035919050565b60008060408385031215612373578182fd5b823591506020830135612385816127bf565b809150509250929050565b600080604083850312156123a2578182fd5b50508035926020909101359150565b6000806000606084860312156123c5578081fd5b833567ffffffffffffffff8111156123db578182fd5b6123e7868287016122c3565b93505060208401356123f8816127bf565b929592945050506040919091013590565b6000806000806080858703121561241e578081fd5b843567ffffffffffffffff80821115612435578283fd5b612441888389016122c3565b955060208701359150612453826127bf565b909350604086013592506060860135908082111561246f578283fd5b508501601f81018713612480578182fd5b61248f8782356020840161224d565b91505092959194509250565b6000602082840312156124ac578081fd5b5051919050565b600081518084526124cb81602086016020860161274c565b601f01601f19169290920160200192915050565b60006bffffffffffffffffffffffff19808960601b168352875161250a816014860160208c0161274c565b606097881b8216601494909101938401526028830195909552509190931b9091166048820152605c810191909152607c0192915050565b6000825161255381846020870161274c565b9190910192915050565b602081526000610fce60208301846124b3565b60608152600061258360608301866124b3565b6001600160a01b039490941660208301525060400152919050565b60c0815260006125b160c08301896124b3565b6001600160a01b039788166020840152604083019690965250929094166060830152608082015260a00191909152919050565b6080815260006125f760808301876124b3565b6001600160a01b03959095166020830152506040810192909252606090910152919050565b6020808252601b908201527f4552525f494e56414c49445f53545245414d5f4b45595f5a45524f0000000000604082015260600190565b6020808252600590820152642ca2a0a92760d91b604082015260600190565b6020808252600490820152630434f4d560e41b604082015260600190565b6020808252601690820152754552525f494e56414c49445f45504f43485f5a45524f60501b604082015260600190565b6020808252600490820152634141564560e01b604082015260600190565b600082198211156126f1576126f1612793565b500190565b60008261271157634e487b7160e01b81526012600452602481fd5b500490565b600081600019048311821515161561273057612730612793565b500290565b60008282101561274757612747612793565b500390565b60005b8381101561276757818101518382015260200161274f565b83811115611e155750506000910152565b600060001982141561278c5761278c612793565b5060010190565b634e487b7160e01b600052601160045260246000fd5b634e487b7160e01b600052604160045260246000fd5b6001600160a01b03811681146127d457600080fd5b5056fea26469706673582212201f717133f918904b8d7c2c87ee9bacbc99f6bdce324979818c5030d6bd54e74864736f6c63430008040033608060405234801561001057600080fd5b50600080546001600160a01b031916339081178255604051909182917f8be0079c531659141344cd1fd0a4f28419497f9722a3daafe3b4186f6b6457e0908290a3506134ed806100616000396000f3fe60806040523480156200001157600080fd5b5060043610620001215760003560e01c8063a1477aec11620000af578063d9caed12116200007a578063d9caed1214620002a1578063e34dc59814620002b8578063f2fde38b14620002e9578063f47f6ab41462000300578063f86f637d146200031757600080fd5b8063a1477aec1462000206578063a22439df146200021d578063ae5ce11a1462000273578063b1dbf3dd146200028a57600080fd5b8063753ced2f11620000f0578063753ced2f146200018c578063825740cc14620001b25780638da5cb5b14620001c957806398d4bab114620001ef57600080fd5b80633366cfa31462000126578063408e1aeb146200013f5780634e2a5a05146200016b578063715018a61462000182575b600080fd5b6200013d6200013736600462001439565b62000345565b005b620001566200015036600462001391565b620003d1565b60405190151581526020015b60405180910390f35b6200013d6200017c366004620013fe565b62000438565b6200013d620004e6565b620001a36200019d3660046200150e565b6200055d565b60405190815260200162000162565b6200013d620001c3366004620015df565b62000596565b6000546001600160a01b03165b6040516001600160a01b03909116815260200162000162565b6200013d62000200366004620013fe565b620006a1565b6200013d6200021736600462001338565b6200085d565b620002536200022e36600462001391565b60016020526000908152604090205460ff81169061010090046001600160a01b031682565b6040805192151583526001600160a01b0390911660208301520162000162565b6200013d620002843660046200155b565b62000944565b620001a36200029b36600462001391565b62000a77565b6200013d620002b2366004620012f3565b62000b0e565b620001d6620002c936600462001391565b60009081526001602052604090205461010090046001600160a01b031690565b6200013d620002fa366004620012b5565b62000b56565b620001a362000311366004620013aa565b62000c45565b620001a362000328366004620013dc565b600260209081526000928352604080842090915290825290205481565b6000546001600160a01b031633146200037b5760405162461bcd60e51b8152600401620003729062001820565b60405180910390fd5b60008681526002602090815260408083208884529091528120549085620003a38684620018d5565b620003af9190620018b4565b9050620003c76001600160a01b038516848362000d65565b5050505050505050565b600081620004225760405162461bcd60e51b815260206004820152601860248201527f73747265616d6b65792063616e6e6f74206265207a65726f0000000000000000604482015260640162000372565b5060009081526001602052604090205460ff1690565b6000546001600160a01b03163314620004655760405162461bcd60e51b8152600401620003729062001820565b60008381526001602052604090819020549051632770a7eb60e21b81526001600160a01b0383811660048301526024820185905261010090920490911690639dc29fac906044015b600060405180830381600087803b158015620004c857600080fd5b505af1158015620004dd573d6000803e3d6000fd5b50505050505050565b6000546001600160a01b03163314620005135760405162461bcd60e51b8152600401620003729062001820565b600080546040516001600160a01b03909116907f8be0079c531659141344cd1fd0a4f28419497f9722a3daafe3b4186f6b6457e0908390a3600080546001600160a01b0319169055565b60008383836040516020016200057693929190620017ae565b6040516020818303038152906040528051906020012090505b9392505050565b6000546001600160a01b03163314620005c35760405162461bcd60e51b8152600401620003729062001820565b6000620005d28585856200055d565b9050606080620005e58787878762000dca565b90925090506000620005ff6000546001600160a01b031690565b848484604051620006109062001250565b6200061f94939291906200175c565b604051809103906000f0801580156200063c573d6000803e3d6000fd5b5060408051808201825260018082526001600160a01b0393841660208084019182526000998a5291909152919096209551865491516001600160a81b0319909216901515610100600160a81b0319161761010091909216021790935550505050505050565b6000546001600160a01b03163314620006ce5760405162461bcd60e51b8152600401620003729062001820565b620006d983620003d1565b620007385760405162461bcd60e51b815260206004820152602860248201527f696e636f72726563742073747265616d4b65792c2073747265616d20646f65736044820152671b9d08195e1a5cdd60c21b606482015260840162000372565b80600062000748600185620018f7565b90506000826001600160a01b031663285939846040518163ffffffff1660e01b815260040160206040518083038186803b1580156200078657600080fd5b505afa1580156200079b573d6000803e3d6000fd5b505050506040513d601f19601f82011682018060405250810190620007c1919062001642565b9050826001600160a01b03166379599f966040518163ffffffff1660e01b8152600401602060405180830381600087803b158015620007ff57600080fd5b505af115801562000814573d6000803e3d6000fd5b505050506040513d601f19601f820116820180604052508101906200083a919062001642565b506000958652600260209081526040808820938852929052942093909355505050565b6000546001600160a01b031633146200088a5760405162461bcd60e51b8152600401620003729062001820565b6200089582620003d1565b620008ef5760405162461bcd60e51b815260206004820152602360248201527f696e636f7272656374206d6574612c2073747265616d20646f65736e742065786044820152621a5cdd60ea1b606482015260840162000372565b60008281526001602052604090205461010090046001600160a01b03166040516340c10f1960e01b81526001600160a01b0385811660048301526024820184905291909116906340c10f1990604401620004ad565b6000546001600160a01b03163314620009715760405162461bcd60e51b8152600401620003729062001820565b600083905062000a048484836001600160a01b0316636f307dc36040518163ffffffff1660e01b8152600401602060405180830381600087803b158015620009b857600080fd5b505af1158015620009cd573d6000803e3d6000fd5b505050506040513d601f19601f82011682018060405250810190620009f39190620012d4565b6001600160a01b0316919062000ec1565b6040516320c5c21160e21b81526001600160a01b0382169063831708449062000a3a908a908a908a9089908990600401620017de565b600060405180830381600087803b15801562000a5557600080fd5b505af115801562000a6a573d6000803e3d6000fd5b5050505050505050505050565b60008181526001602052604081205461010090046001600160a01b03166001600160a01b03166318160ddd6040518163ffffffff1660e01b815260040160206040518083038186803b15801562000acd57600080fd5b505afa15801562000ae2573d6000803e3d6000fd5b505050506040513d601f19601f8201168201806040525081019062000b08919062001642565b92915050565b6000546001600160a01b0316331462000b3b5760405162461bcd60e51b8152600401620003729062001820565b62000b516001600160a01b038416838362000d65565b505050565b6000546001600160a01b0316331462000b835760405162461bcd60e51b8152600401620003729062001820565b6001600160a01b03811662000bea5760405162461bcd60e51b815260206004820152602660248201527f4f776e61626c653a206e6577206f776e657220697320746865207a65726f206160448201526564647265737360d01b606482015260840162000372565b600080546040516001600160a01b03808516939216917f8be0079c531659141344cd1fd0a4f28419497f9722a3daafe3b4186f6b6457e091a3600080546001600160a01b0319166001600160a01b0392909216919091179055565b60008281526001602090815260408083205481516318160ddd60e01b8152915184936101009092046001600160a01b0316926318160ddd926004808301939192829003018186803b15801562000c9a57600080fd5b505afa15801562000caf573d6000803e3d6000fd5b505050506040513d601f19601f8201168201806040525081019062000cd5919062001642565b90506000836001600160a01b031663419323f16040518163ffffffff1660e01b815260040160206040518083038186803b15801562000d1357600080fd5b505afa15801562000d28573d6000803e3d6000fd5b505050506040513d601f19601f8201168201806040525081019062000d4e919062001642565b905062000d5c8282620018b4565b95945050505050565b6040516001600160a01b03831660248201526044810182905262000b5190849063a9059cbb60e01b906064015b60408051601f198184030181529190526020810180516001600160e01b03166001600160e01b03199093169290921790915262000fee565b6060806000856001600160a01b03166395d89b416040518163ffffffff1660e01b815260040160006040518083038186803b15801562000e0957600080fd5b505afa15801562000e1e573d6000803e3d6000fd5b505050506040513d6000823e601f3d908101601f1916820160405262000e4891908101906200149b565b9050600062000e5a61168087620018b4565b9050600082828760405160200162000e759392919062001714565b604051602081830303815290604052905060008984848960405160200162000ea19493929190620016a7565b60408051808303601f190181529190529a91995090975050505050505050565b80158062000f4f5750604051636eb1769f60e11b81523060048201526001600160a01b03838116602483015284169063dd62ed3e9060440160206040518083038186803b15801562000f1257600080fd5b505afa15801562000f27573d6000803e3d6000fd5b505050506040513d601f19601f8201168201806040525081019062000f4d919062001642565b155b62000fbc5760405162461bcd60e51b815260206004820152603660248201527f5361666545524332303a20617070726f76652066726f6d206e6f6e2d7a65726f60448201527520746f206e6f6e2d7a65726f20616c6c6f77616e636560501b606482015260840162000372565b6040516001600160a01b03831660248201526044810182905262000b5190849063095ea7b360e01b9060640162000d92565b600062001045826040518060400160405280602081526020017f5361666545524332303a206c6f772d6c6576656c2063616c6c206661696c6564815250856001600160a01b0316620010c79092919063ffffffff16565b80519091501562000b5157808060200190518101906200106691906200136f565b62000b515760405162461bcd60e51b815260206004820152602a60248201527f5361666545524332303a204552433230206f7065726174696f6e20646964206e6044820152691bdd081cdd58d8d9595960b21b606482015260840162000372565b6060620010d88484600085620010e0565b949350505050565b606082471015620011435760405162461bcd60e51b815260206004820152602660248201527f416464726573733a20696e73756666696369656e742062616c616e636520666f6044820152651c8818d85b1b60d21b606482015260840162000372565b843b620011935760405162461bcd60e51b815260206004820152601d60248201527f416464726573733a2063616c6c20746f206e6f6e2d636f6e7472616374000000604482015260640162000372565b600080866001600160a01b03168587604051620011b1919062001689565b60006040518083038185875af1925050503d8060008114620011f0576040519150601f19603f3d011682016040523d82523d6000602084013e620011f5565b606091505b50915091506200120782828662001212565b979650505050505050565b60608315620012235750816200058f565b825115620012345782518084602001fd5b8160405162461bcd60e51b815260040162000372919062001799565b611b2e806200198a83390190565b600082601f8301126200126f578081fd5b813562001286620012808262001889565b62001855565b8181528460208386010111156200129b578283fd5b816020850160208301379081016020019190915292915050565b600060208284031215620012c7578081fd5b81356200058f8162001970565b600060208284031215620012e6578081fd5b81516200058f8162001970565b60008060006060848603121562001308578182fd5b8335620013158162001970565b92506020840135620013278162001970565b929592945050506040919091013590565b6000806000606084860312156200134d578283fd5b83356200135a8162001970565b95602085013595506040909401359392505050565b60006020828403121562001381578081fd5b815180151581146200058f578182fd5b600060208284031215620013a3578081fd5b5035919050565b60008060408385031215620013bd578182fd5b823591506020830135620013d18162001970565b809150509250929050565b60008060408385031215620013ef578182fd5b50508035926020909101359150565b60008060006060848603121562001413578283fd5b833592506020840135915060408401356200142e8162001970565b809150509250925092565b60008060008060008060c0878903121562001452578182fd5b8635955060208701359450604087013593506060870135925060808701356200147b8162001970565b915060a08701356200148d8162001970565b809150509295509295509295565b600060208284031215620014ad578081fd5b815167ffffffffffffffff811115620014c4578182fd5b8201601f81018413620014d5578182fd5b8051620014e6620012808262001889565b818152856020838501011115620014fb578384fd5b62000d5c82602083016020860162001911565b60008060006060848603121562001523578283fd5b833567ffffffffffffffff8111156200153a578384fd5b62001548868287016200125e565b9350506020840135620013278162001970565b60008060008060008060c0878903121562001574578384fd5b863567ffffffffffffffff8111156200158b578485fd5b6200159989828a016200125e565b9650506020870135620015ac8162001970565b9450604087013593506060870135620015c58162001970565b9598949750929560808101359460a0909101359350915050565b60008060008060808587031215620015f5578182fd5b843567ffffffffffffffff8111156200160c578283fd5b6200161a878288016200125e565b94505060208501356200162d8162001970565b93969395505050506040820135916060013590565b60006020828403121562001654578081fd5b5051919050565b600081518084526200167581602086016020860162001911565b601f01601f19169290920160200192915050565b600082516200169d81846020870162001911565b9190910192915050565b60008551620016bb818460208a0162001911565b8083019050602d60f81b8082528651620016dd816001850160208b0162001911565b9091016001810182905260028101959095526022850152505060238201526602d6f776e7368760cc1b6043820152604a0192915050565b61552d60f01b8152600084516200173381600285016020890162001911565b602d60f81b92016002810183905260038101949094525060238301526024820152604401919050565b60018060a01b03851681528360208201526080604082015260006200178560808301856200165b565b82810360608401526200120781856200165b565b6020815260006200058f60208301846200165b565b606081526000620017c360608301866200165b565b6001600160a01b039490941660208301525060400152919050565b60a081526000620017f360a08301886200165b565b6001600160a01b039690961660208301525060408101939093526060830191909152608090910152919050565b6020808252818101527f4f776e61626c653a2063616c6c6572206973206e6f7420746865206f776e6572604082015260600190565b604051601f8201601f1916810167ffffffffffffffff811182821017156200188157620018816200195a565b604052919050565b600067ffffffffffffffff821115620018a657620018a66200195a565b50601f01601f191660200190565b600082620018d057634e487b7160e01b81526012600452602481fd5b500490565b6000816000190483118215151615620018f257620018f262001944565b500290565b6000828210156200190c576200190c62001944565b500390565b60005b838110156200192e57818101518382015260200162001914565b838111156200193e576000848401525b50505050565b634e487b7160e01b600052601160045260246000fd5b634e487b7160e01b600052604160045260246000fd5b6001600160a01b03811681146200198657600080fd5b5056fe60c06040523480156200001157600080fd5b5060405162001b2e38038062001b2e8339810160408190526200003491620003b4565b8151829082906200004d9060049060208501906200025b565b508051620000639060059060208401906200025b565b5050506200008760008051602062001b0e833981519152336200015760201b60201c565b620000a260008051602062001aee8339815191523362000157565b620000cc60008051602062001aee83398151915260008051602062001b0e83398151915262000167565b620000e760008051602062001b0e8339815191528062000167565b82620001395760405162461bcd60e51b815260206004820152601860248201527f73747265616d4b65792063616e6e6f74206265206e756c6c0000000000000000604482015260640160405180910390fd5b505060609190911b6001600160601b03191660805260a05262000497565b620001638282620001bb565b5050565b600082815260208190526040902060010154819060405184907fbd79b86ffe0ab8e8776151514217cd7cacd52c909f66475c3af44e129f0b00ff90600090a460009182526020829052604090912060010155565b6000828152602081815260408083206001600160a01b038516845290915290205460ff1662000163576000828152602081815260408083206001600160a01b03851684529091529020805460ff19166001179055620002173390565b6001600160a01b0316816001600160a01b0316837f2f8788117e7eff1d82e926ec794901d17c78024a50270940304540a733656f0d60405160405180910390a45050565b828054620002699062000444565b90600052602060002090601f0160209004810192826200028d5760008555620002d8565b82601f10620002a857805160ff1916838001178555620002d8565b82800160010185558215620002d8579182015b82811115620002d8578251825591602001919060010190620002bb565b50620002e6929150620002ea565b5090565b5b80821115620002e65760008155600101620002eb565b600082601f83011262000312578081fd5b81516001600160401b03808211156200032f576200032f62000481565b604051601f8301601f19908116603f011681019082821181831017156200035a576200035a62000481565b8160405283815260209250868385880101111562000376578485fd5b8491505b838210156200039957858201830151818301840152908201906200037a565b83821115620003aa57848385830101525b9695505050505050565b60008060008060808587031215620003ca578384fd5b84516001600160a01b0381168114620003e1578485fd5b6020860151604087015191955093506001600160401b038082111562000405578384fd5b620004138883890162000301565b9350606087015191508082111562000429578283fd5b50620004388782880162000301565b91505092959194509250565b600181811c908216806200045957607f821691505b602082108114156200047b57634e487b7160e01b600052602260045260246000fd5b50919050565b634e487b7160e01b600052604160045260246000fd5b60805160601c60a05161160b620004e36000396000818161037601528181610fcf015261106e01526000818161039d01528181610f160152818161100501526110a4015261160b6000f3fe608060405234801561001057600080fd5b50600436106101585760003560e01c806375b238fc116100c3578063a9059cbb1161007c578063a9059cbb146102eb578063d5391393146102fe578063d547741f14610325578063dd62ed3e14610338578063ea9c629214610371578063f2f4eb261461039857600080fd5b806375b238fc1461027b57806391d14854146102a257806395d89b41146102b55780639dc29fac146102bd578063a217fddf146102d0578063a457c2d7146102d857600080fd5b80632f2ff15d116101155780632f2ff15d146101f5578063313ce5671461020a57806336568abe14610219578063395093511461022c57806340c10f191461023f57806370a082311461025257600080fd5b806301ffc9a71461015d57806306fdde0314610185578063095ea7b31461019a57806318160ddd146101ad57806323b872dd146101bf578063248a9ca3146101d2575b600080fd5b61017061016b366004611407565b6103d7565b60405190151581526020015b60405180910390f35b61018d61040e565b60405161017c91906114a4565b6101706101a83660046113a0565b6104a0565b6003545b60405190815260200161017c565b6101706101cd366004611360565b6104b6565b6101b16101e03660046113cb565b60009081526020819052604090206001015490565b6102086102033660046113e3565b61056c565b005b6040516012815260200161017c565b6102086102273660046113e3565b610597565b61017061023a3660046113a0565b610615565b61020861024d3660046113a0565b61064c565b6101b16102603660046112f0565b6001600160a01b031660009081526001602052604090205490565b6101b17fdf8b4c520ffe197c5343c6f5aec59570151ef9a492f2c624fd45ddde6135ec4281565b6101706102b03660046113e3565b6106cc565b61018d6106f5565b6102086102cb3660046113a0565b610704565b6101b1600081565b6101706102e63660046113a0565b610784565b6101706102f93660046113a0565b61081f565b6101b17ff0887ba65ee2024ea881d91b74c2450ef19e1557f03bed3ea9f16b037cbe2dc981565b6102086103333660046113e3565b61082c565b6101b1610346366004611328565b6001600160a01b03918216600090815260026020908152604080832093909416825291909152205490565b6101b17f000000000000000000000000000000000000000000000000000000000000000081565b6103bf7f000000000000000000000000000000000000000000000000000000000000000081565b6040516001600160a01b03909116815260200161017c565b60006001600160e01b03198216637965db0b60e01b148061040857506301ffc9a760e01b6001600160e01b03198316145b92915050565b60606004805461041d9061156c565b80601f01602080910402602001604051908101604052809291908181526020018280546104499061156c565b80156104965780601f1061046b57610100808354040283529160200191610496565b820191906000526020600020905b81548152906001019060200180831161047957829003601f168201915b5050505050905090565b60006104ad338484610852565b50600192915050565b60006104c3848484610977565b6001600160a01b03841660009081526002602090815260408083203384529091529020548281101561054d5760405162461bcd60e51b815260206004820152602860248201527f45524332303a207472616e7366657220616d6f756e74206578636565647320616044820152676c6c6f77616e636560c01b60648201526084015b60405180910390fd5b610561853361055c868561150e565b610852565b506001949350505050565b6000828152602081905260409020600101546105888133610b5a565b6105928383610bbe565b505050565b6001600160a01b03811633146106075760405162461bcd60e51b815260206004820152602f60248201527f416363657373436f6e74726f6c3a2063616e206f6e6c792072656e6f756e636560448201526e103937b632b9903337b91039b2b63360891b6064820152608401610544565b6106118282610c42565b5050565b3360008181526002602090815260408083206001600160a01b038716845290915281205490916104ad91859061055c9086906114d7565b6106767ff0887ba65ee2024ea881d91b74c2450ef19e1557f03bed3ea9f16b037cbe2dc9336106cc565b6106c25760405162461bcd60e51b815260206004820152601a60248201527f4d696e7461626c65546f6b656e3a206f6e6c79206d696e7465720000000000006044820152606401610544565b6106118282610ca7565b6000918252602082815260408084206001600160a01b0393909316845291905290205460ff1690565b60606005805461041d9061156c565b61072e7ff0887ba65ee2024ea881d91b74c2450ef19e1557f03bed3ea9f16b037cbe2dc9336106cc565b61077a5760405162461bcd60e51b815260206004820152601a60248201527f4d696e7461626c65546f6b656e3a206f6e6c79206d696e7465720000000000006044820152606401610544565b6106118282610d92565b3360009081526002602090815260408083206001600160a01b0386168452909152812054828110156108065760405162461bcd60e51b815260206004820152602560248201527f45524332303a2064656372656173656420616c6c6f77616e63652062656c6f77604482015264207a65726f60d81b6064820152608401610544565b610815338561055c868561150e565b5060019392505050565b60006104ad338484610977565b6000828152602081905260409020600101546108488133610b5a565b6105928383610c42565b6001600160a01b0383166108b45760405162461bcd60e51b8152602060048201526024808201527f45524332303a20617070726f76652066726f6d20746865207a65726f206164646044820152637265737360e01b6064820152608401610544565b6001600160a01b0382166109155760405162461bcd60e51b815260206004820152602260248201527f45524332303a20617070726f766520746f20746865207a65726f206164647265604482015261737360f01b6064820152608401610544565b6001600160a01b0383811660008181526002602090815260408083209487168084529482529182902085905590518481527f8c5be1e5ebec7d5bd14f71427d1e84f3dd0314c0f7b2291e5b200ac8c7c3b92591015b60405180910390a3505050565b6001600160a01b0383166109db5760405162461bcd60e51b815260206004820152602560248201527f45524332303a207472616e736665722066726f6d20746865207a65726f206164604482015264647265737360d81b6064820152608401610544565b6001600160a01b038216610a3d5760405162461bcd60e51b815260206004820152602360248201527f45524332303a207472616e7366657220746f20746865207a65726f206164647260448201526265737360e81b6064820152608401610544565b610a48838383610eed565b6001600160a01b03831660009081526001602052604090205481811015610ac05760405162461bcd60e51b815260206004820152602660248201527f45524332303a207472616e7366657220616d6f756e7420657863656564732062604482015265616c616e636560d01b6064820152608401610544565b610aca828261150e565b6001600160a01b038086166000908152600160205260408082209390935590851681529081208054849290610b009084906114d7565b92505081905550826001600160a01b0316846001600160a01b03167fddf252ad1be2c89b69c2b068fc378daa952ba7f163c4a11628f55a4df523b3ef84604051610b4c91815260200190565b60405180910390a350505050565b610b6482826106cc565b61061157610b7c816001600160a01b03166014611107565b610b87836020611107565b604051602001610b9892919061142f565b60408051601f198184030181529082905262461bcd60e51b8252610544916004016114a4565b610bc882826106cc565b610611576000828152602081815260408083206001600160a01b03851684529091529020805460ff19166001179055610bfe3390565b6001600160a01b0316816001600160a01b0316837f2f8788117e7eff1d82e926ec794901d17c78024a50270940304540a733656f0d60405160405180910390a45050565b610c4c82826106cc565b15610611576000828152602081815260408083206001600160a01b0385168085529252808320805460ff1916905551339285917ff6391f5c32d9c69d2a47ea670b442974b53935d1edc7fd64eb21e047a839171b9190a45050565b6001600160a01b038216610cfd5760405162461bcd60e51b815260206004820152601f60248201527f45524332303a206d696e7420746f20746865207a65726f2061646472657373006044820152606401610544565b610d0960008383610eed565b8060036000828254610d1b91906114d7565b90915550506001600160a01b03821660009081526001602052604081208054839290610d489084906114d7565b90915550506040518181526001600160a01b038316906000907fddf252ad1be2c89b69c2b068fc378daa952ba7f163c4a11628f55a4df523b3ef9060200160405180910390a35050565b6001600160a01b038216610df25760405162461bcd60e51b815260206004820152602160248201527f45524332303a206275726e2066726f6d20746865207a65726f206164647265736044820152607360f81b6064820152608401610544565b610dfe82600083610eed565b6001600160a01b03821660009081526001602052604090205481811015610e725760405162461bcd60e51b815260206004820152602260248201527f45524332303a206275726e20616d6f756e7420657863656564732062616c616e604482015261636560f01b6064820152608401610544565b610e7c828261150e565b6001600160a01b03841660009081526001602052604081209190915560038054849290610eaa90849061150e565b90915550506040518281526000906001600160a01b038516907fddf252ad1be2c89b69c2b068fc378daa952ba7f163c4a11628f55a4df523b3ef9060200161096a565b6001600160a01b03831615801590610f0d57506001600160a01b03821615155b8015610fbb57507f00000000000000000000000000000000000000000000000000000000000000006001600160a01b031663c5f956af6040518163ffffffff1660e01b815260040160206040518083038186803b158015610f6d57600080fd5b505afa158015610f81573d6000803e3d6000fd5b505050506040513d601f19601f82011682018060405250810190610fa5919061130c565b6001600160a01b0316836001600160a01b031614155b1561059257604051632633ae0560e11b81527f000000000000000000000000000000000000000000000000000000000000000060048201526001600160a01b0384811660248301527f00000000000000000000000000000000000000000000000000000000000000001690634c675c0a90604401600060405180830381600087803b15801561104957600080fd5b505af115801561105d573d6000803e3d6000fd5b5050604051632633ae0560e11b81527f000000000000000000000000000000000000000000000000000000000000000060048201526001600160a01b0385811660248301527f0000000000000000000000000000000000000000000000000000000000000000169250634c675c0a9150604401600060405180830381600087803b1580156110ea57600080fd5b505af11580156110fe573d6000803e3d6000fd5b50505050505050565b606060006111168360026114ef565b6111219060026114d7565b67ffffffffffffffff81111561114757634e487b7160e01b600052604160045260246000fd5b6040519080825280601f01601f191660200182016040528015611171576020820181803683370190505b509050600360fc1b8160008151811061119a57634e487b7160e01b600052603260045260246000fd5b60200101906001600160f81b031916908160001a905350600f60fb1b816001815181106111d757634e487b7160e01b600052603260045260246000fd5b60200101906001600160f81b031916908160001a90535060006111fb8460026114ef565b6112069060016114d7565b90505b600181111561129a576f181899199a1a9b1b9c1cb0b131b232b360811b85600f166010811061124857634e487b7160e01b600052603260045260246000fd5b1a60f81b82828151811061126c57634e487b7160e01b600052603260045260246000fd5b60200101906001600160f81b031916908160001a90535060049490941c9361129381611555565b9050611209565b5083156112e95760405162461bcd60e51b815260206004820181905260248201527f537472696e67733a20686578206c656e67746820696e73756666696369656e746044820152606401610544565b9392505050565b600060208284031215611301578081fd5b81356112e9816115bd565b60006020828403121561131d578081fd5b81516112e9816115bd565b6000806040838503121561133a578081fd5b8235611345816115bd565b91506020830135611355816115bd565b809150509250929050565b600080600060608486031215611374578081fd5b833561137f816115bd565b9250602084013561138f816115bd565b929592945050506040919091013590565b600080604083850312156113b2578182fd5b82356113bd816115bd565b946020939093013593505050565b6000602082840312156113dc578081fd5b5035919050565b600080604083850312156113f5578182fd5b823591506020830135611355816115bd565b600060208284031215611418578081fd5b81356001600160e01b0319811681146112e9578182fd5b7f416363657373436f6e74726f6c3a206163636f756e7420000000000000000000815260008351611467816017850160208801611525565b7001034b99036b4b9b9b4b733903937b6329607d1b6017918401918201528351611498816028840160208801611525565b01602801949350505050565b60208152600082518060208401526114c3816040850160208701611525565b601f01601f19169190910160400192915050565b600082198211156114ea576114ea6115a7565b500190565b6000816000190483118215151615611509576115096115a7565b500290565b600082821015611520576115206115a7565b500390565b60005b83811015611540578181015183820152602001611528565b8381111561154f576000848401525b50505050565b600081611564576115646115a7565b506000190190565b600181811c9082168061158057607f821691505b602082108114156115a157634e487b7160e01b600052602260045260246000fd5b50919050565b634e487b7160e01b600052601160045260246000fd5b6001600160a01b03811681146115d257600080fd5b5056fea26469706673582212208d50dde792d36e9e18bbfb52407da129dfbc8aa96cb009e03909dbd629ec842b64736f6c63430008040033f0887ba65ee2024ea881d91b74c2450ef19e1557f03bed3ea9f16b037cbe2dc9df8b4c520ffe197c5343c6f5aec59570151ef9a492f2c624fd45ddde6135ec42a2646970667358221220c6664a3e6aaee198e5092d8c2c05f7f02eadfdb76153a5c3522ca494651114bd64736f6c63430008040033",
  "linkReferences": {},
  "deployedLinkReferences": {}
}