{
  "_format": "hh-sol-artifact-1",
  "contractName": "Core",
  "sourceName": "contracts/Core.sol",
  "abi": [
    {
      "inputs": [],
      "stateMutability": "nonpayable",
      "type": "constructor"
    },
    {
      "anonymous": false,
      "inputs": [
        {
          "indexed": false,
          "internalType": "bytes32",
          "name": "streamKey",
          "type": "bytes32"
        },
        {
          "indexed": false,
          "internalType": "address",
          "name": "user",
          "type": "address"
        },
        {
          "indexed": false,
          "internalType": "uint256",
          "name": "amount",
          "type": "uint256"
        }
      ],
      "name": "Deposited",
      "type": "event"
    },
    {
      "anonymous": false,
      "inputs": [
        {
          "indexed": false,
          "internalType": "bytes32",
          "name": "streamKey",
          "type": "bytes32"
        },
        {
          "indexed": false,
          "internalType": "uint256",
          "name": "futureIndex",
          "type": "uint256"
        }
      ],
      "name": "EpochStarted",
      "type": "event"
    },
    {
      "anonymous": false,
      "inputs": [
        {
          "indexed": false,
          "internalType": "address",
          "name": "underlying",
          "type": "address"
        },
        {
          "indexed": false,
          "internalType": "string",
          "name": "protocol",
          "type": "string"
        },
        {
          "indexed": false,
          "internalType": "uint256",
          "name": "durationBlocks",
          "type": "uint256"
        },
        {
          "indexed": false,
          "internalType": "bytes32",
          "name": "streamKey",
          "type": "bytes32"
        }
      ],
      "name": "NewStream",
      "type": "event"
    },
    {
      "anonymous": false,
      "inputs": [
        {
          "indexed": false,
          "internalType": "bytes32",
          "name": "streamKey",
          "type": "bytes32"
        },
        {
          "indexed": false,
          "internalType": "uint256",
          "name": "epoch",
          "type": "uint256"
        },
        {
          "indexed": false,
          "internalType": "uint256",
          "name": "amount",
          "type": "uint256"
        }
      ],
      "name": "PrincipleRedeemed",
      "type": "event"
    },
    {
      "anonymous": false,
      "inputs": [
        {
          "indexed": false,
          "internalType": "bytes32",
          "name": "streamKey",
          "type": "bytes32"
        },
        {
          "indexed": false,
          "internalType": "uint256",
          "name": "epoch",
          "type": "uint256"
        },
        {
          "indexed": false,
          "internalType": "uint256",
          "name": "amount",
          "type": "uint256"
        }
      ],
      "name": "YieldRedeemed",
      "type": "event"
    },
    {
      "inputs": [],
      "name": "aave",
      "outputs": [
        {
          "internalType": "bytes32",
          "name": "",
          "type": "bytes32"
        }
      ],
      "stateMutability": "view",
      "type": "function"
    },
    {
      "inputs": [],
      "name": "comp",
      "outputs": [
        {
          "internalType": "bytes32",
          "name": "",
          "type": "bytes32"
        }
      ],
      "stateMutability": "view",
      "type": "function"
    },
    {
      "inputs": [
        {
          "internalType": "bytes32",
          "name": "_streamKey",
          "type": "bytes32"
        },
        {
          "internalType": "uint256",
          "name": "_amountUnderlying",
          "type": "uint256"
        }
      ],
      "name": "deposit",
      "outputs": [
        {
          "internalType": "uint256",
          "name": "",
          "type": "uint256"
        },
        {
          "internalType": "uint256",
          "name": "",
          "type": "uint256"
        }
      ],
      "stateMutability": "nonpayable",
      "type": "function"
    },
    {
      "inputs": [
        {
          "internalType": "bytes32",
          "name": "_streamKey",
          "type": "bytes32"
        }
      ],
      "name": "getCurrentEpoch",
      "outputs": [
        {
          "internalType": "uint256",
          "name": "",
          "type": "uint256"
        }
      ],
      "stateMutability": "view",
      "type": "function"
    },
    {
      "inputs": [
        {
          "internalType": "bytes32",
          "name": "_streamKey",
          "type": "bytes32"
        },
        {
          "internalType": "uint256",
          "name": "_epoch",
          "type": "uint256"
        }
      ],
      "name": "getEpochAddress",
      "outputs": [
        {
          "internalType": "address",
          "name": "",
          "type": "address"
        }
      ],
      "stateMutability": "view",
      "type": "function"
    },
    {
      "inputs": [
        {
          "internalType": "bytes32",
          "name": "_streamKey",
          "type": "bytes32"
        }
      ],
      "name": "getNextEpoch",
      "outputs": [
        {
          "internalType": "uint256",
          "name": "",
          "type": "uint256"
        }
      ],
      "stateMutability": "view",
      "type": "function"
    },
    {
      "inputs": [
        {
          "internalType": "bytes32",
          "name": "_streamKey",
          "type": "bytes32"
        },
        {
          "internalType": "uint256",
          "name": "_epoch",
          "type": "uint256"
        }
      ],
      "name": "getOT",
      "outputs": [
        {
          "internalType": "address",
          "name": "",
          "type": "address"
        }
      ],
      "stateMutability": "view",
      "type": "function"
    },
    {
      "inputs": [
        {
          "internalType": "string",
          "name": "_protocol",
          "type": "string"
        },
        {
          "internalType": "address",
          "name": "_underlying",
          "type": "address"
        },
        {
          "internalType": "uint256",
          "name": "_duration",
          "type": "uint256"
        }
      ],
      "name": "getStreamKey",
      "outputs": [
        {
          "internalType": "bytes32",
          "name": "",
          "type": "bytes32"
        }
      ],
      "stateMutability": "pure",
      "type": "function"
    },
    {
      "inputs": [
        {
          "internalType": "bytes32",
          "name": "_streamKey",
          "type": "bytes32"
        },
        {
          "internalType": "uint256",
          "name": "_epoch",
          "type": "uint256"
        }
      ],
      "name": "getYT",
      "outputs": [
        {
          "internalType": "address",
          "name": "",
          "type": "address"
        }
      ],
      "stateMutability": "view",
      "type": "function"
    },
    {
      "inputs": [
        {
          "internalType": "bytes32",
          "name": "_streamKey",
          "type": "bytes32"
        },
        {
          "internalType": "uint256",
          "name": "_epoch",
          "type": "uint256"
        }
      ],
      "name": "getYieldRemaining",
      "outputs": [
        {
          "internalType": "uint256",
          "name": "",
          "type": "uint256"
        }
      ],
      "stateMutability": "view",
      "type": "function"
    },
    {
      "inputs": [
        {
          "internalType": "bytes32",
          "name": "_streamKey",
          "type": "bytes32"
        }
      ],
      "name": "isStreamInitialized",
      "outputs": [
        {
          "internalType": "bool",
          "name": "",
          "type": "bool"
        }
      ],
      "stateMutability": "view",
      "type": "function"
    },
    {
      "inputs": [],
      "name": "owner",
      "outputs": [
        {
          "internalType": "address",
          "name": "",
          "type": "address"
        }
      ],
      "stateMutability": "view",
      "type": "function"
    },
    {
      "inputs": [
        {
          "internalType": "bytes32",
          "name": "_streamKey",
          "type": "bytes32"
        },
        {
          "internalType": "uint256",
          "name": "_epoch",
          "type": "uint256"
        }
      ],
      "name": "redeemPrinciple",
      "outputs": [],
      "stateMutability": "nonpayable",
      "type": "function"
    },
    {
      "inputs": [
        {
          "internalType": "bytes32",
          "name": "_streamKey",
          "type": "bytes32"
        },
        {
          "internalType": "uint256",
          "name": "_epoch",
          "type": "uint256"
        }
      ],
      "name": "redeemYield",
      "outputs": [],
      "stateMutability": "nonpayable",
      "type": "function"
    },
    {
      "inputs": [
        {
          "internalType": "string",
          "name": "_protocol",
          "type": "string"
        },
        {
          "internalType": "address",
          "name": "_underlying",
          "type": "address"
        },
        {
          "internalType": "uint256",
          "name": "_durationBlocks",
          "type": "uint256"
        },
        {
          "internalType": "bytes",
          "name": "_bytecode",
          "type": "bytes"
        },
        {
          "internalType": "bytes",
          "name": "_extraData",
          "type": "bytes"
        }
      ],
      "name": "registerNewStream",
      "outputs": [],
      "stateMutability": "nonpayable",
      "type": "function"
    },
    {
      "inputs": [
        {
          "internalType": "string",
          "name": "_protocol",
          "type": "string"
        },
        {
          "internalType": "address",
          "name": "_underlying",
          "type": "address"
        },
        {
          "internalType": "uint256",
          "name": "_durationBlocks",
          "type": "uint256"
        },
        {
          "internalType": "bytes",
          "name": "_bytecode",
          "type": "bytes"
        },
        {
          "internalType": "bytes",
          "name": "_extraData",
          "type": "bytes"
        }
      ],
      "name": "startEpoch",
      "outputs": [],
      "stateMutability": "nonpayable",
      "type": "function"
    },
    {
      "inputs": [
        {
          "internalType": "bytes32",
          "name": "",
          "type": "bytes32"
        },
        {
          "internalType": "uint256",
          "name": "",
          "type": "uint256"
        }
      ],
      "name": "streams",
      "outputs": [
        {
          "internalType": "address",
          "name": "",
          "type": "address"
        }
      ],
      "stateMutability": "view",
      "type": "function"
    },
    {
      "inputs": [],
      "name": "treasuryAddress",
      "outputs": [
        {
          "internalType": "address",
          "name": "",
          "type": "address"
        }
      ],
      "stateMutability": "view",
      "type": "function"
    },
    {
      "inputs": [],
      "name": "yearn",
      "outputs": [
        {
          "internalType": "bytes32",
          "name": "",
          "type": "bytes32"
        }
      ],
      "stateMutability": "view",
      "type": "function"
    }
  ],
  "bytecode": "0x60c060405234801561001057600080fd5b503360601b60805260405161002490610056565b604051809103906000f080158015610040573d6000803e3d6000fd5b5060601b6001600160601b03191660a052610064565b6111d9806200240383390190565b60805160601c60a05160601c612342620000c160003960008181610287015281816103150152818161073001528181610c29015281816111c2015281816114b9015261173201526000818161021a015261046801526123426000f3fe608060405234801561001057600080fd5b50600436106101215760003560e01c806389b087e0116100ad578063c5f956af11610071578063c5f956af14610282578063df9ff772146102a9578063e3d41e5d146102bc578063f26af213146102cf578063fee46566146102e257600080fd5b806389b087e0146101f25780638da5cb5b14610215578063b93bd1ab1461023c578063c2449e421461024f578063c5f360f01461026257600080fd5b806311ed13cf116100f457806311ed13cf146101875780631de26e161461019c57806345e5a84b146101c4578063753ced2f146101d7578063819faf7b146101ea57600080fd5b806302a2477b146101265780630bbac9511461014c578063109d0af81461015457806311b90f821461015c575b600080fd5b610139610134366004611e76565b6102f5565b6040519081526020015b60405180910390f35b61013961039e565b6101396103c6565b61016f61016a366004611e76565b6103d5565b6040516001600160a01b039091168152602001610143565b61019a610195366004611f62565b61045d565b005b6101af6101aa366004611e76565b610722565b60408051928352602083019190915201610143565b61019a6101d2366004611f62565b610b09565b6101396101e5366004611f0a565b610dd7565b610139610e0d565b610205610200366004611e5e565b610e1c565b6040519015158152602001610143565b61016f7f000000000000000000000000000000000000000000000000000000000000000081565b61019a61024a366004611e76565b610e40565b61016f61025d366004611e76565b611268565b610139610270366004611e5e565b60009081526020819052604090205490565b61016f7f000000000000000000000000000000000000000000000000000000000000000081565b61019a6102b7366004611e76565b6112a0565b61016f6102ca366004611e76565b611646565b61016f6102dd366004611e76565b611690565b6101396102f0366004611e5e565b6116d8565b60405163f86f637d60e01b815260048101839052602481018290526000907f00000000000000000000000000000000000000000000000000000000000000006001600160a01b03169063f86f637d9060440160206040518083038186803b15801561035f57600080fd5b505afa158015610373573d6000803e3d6000fd5b505050506040513d601f19601f820116820180604052508101906103979190612005565b9392505050565b6040516020016103ad90612195565b6040516020818303038152906040528051906020012081565b6040516020016103ad906121b4565b6000806103e28484611646565b9050806001600160a01b03166304aa50ad6040518163ffffffff1660e01b815260040160206040518083038186803b15801561041d57600080fd5b505afa158015610431573d6000803e3d6000fd5b505050506040513d601f19601f820116820180604052508101906104559190611e22565b949350505050565b336001600160a01b037f000000000000000000000000000000000000000000000000000000000000000016146104cb5760405162461bcd60e51b815260206004820152600e60248201526d22a9292fa7a7262cafa7aba722a960911b60448201526064015b60405180910390fd5b846000816040516020016104df9190612114565b604051602081830303815290604052805190602001209050604051602001610506906121d2565b6040516020818303038152906040528051906020012081148061054c5750604051602001610533906121b4565b6040516020818303038152906040528051906020012081145b8061057a575060405160200161056190612195565b6040516020818303038152906040528051906020012081145b6105c15760405162461bcd60e51b815260206004820152601860248201527711549497d55394d5541413d495115117d41493d513d0d3d360421b60448201526064016104c2565b6001600160a01b0386166106175760405162461bcd60e51b815260206004820152601860248201527f4552525f494e56414c49445f414444524553535f5a45524f000000000000000060448201526064016104c2565b600085116106675760405162461bcd60e51b815260206004820152601960248201527f4552525f494e56414c49445f4455524154494f4e5f5a45524f0000000000000060448201526064016104c2565b6000610674888888610dd7565b905061067f81610e1c565b156106cc5760405162461bcd60e51b815260206004820152601960248201527f4552525f53545245414d5f414c52454144595f4558495354530000000000000060448201526064016104c2565b6106db88888860008989611711565b7f4e220215f4796a05986fbf141e4f83fef7e8c43b1b644641f1fd171bb26b09e28789888460405161071094939291906120dd565b60405180910390a15050505050505050565b60008061072e84611a7b565b7f0000000000000000000000000000000000000000000000000000000000000000600061075a866116d8565b905060006107688783611646565b90506000816001600160a01b031663285939846040518163ffffffff1660e01b815260040160206040518083038186803b1580156107a557600080fd5b505afa1580156107b9573d6000803e3d6000fd5b505050506040513d601f19601f820116820180604052508101906107dd9190612005565b9050600061086b33868a866001600160a01b0316636f307dc36040518163ffffffff1660e01b8152600401602060405180830381600087803b15801561082257600080fd5b505af1158015610836573d6000803e3d6000fd5b505050506040513d601f19601f8201168201806040525081019061085a9190611e22565b6001600160a01b0316929190611b20565b846001600160a01b03166347e7ef246108848b87611646565b6040516001600160e01b031960e084901b1681526001600160a01b039091166004820152602481018b9052604401600060405180830381600087803b1580156108cc57600080fd5b505af11580156108e0573d6000803e3d6000fd5b5050505060008211156109f9576000836001600160a01b03166304aa50ad6040518163ffffffff1660e01b815260040160206040518083038186803b15801561092857600080fd5b505afa15801561093c573d6000803e3d6000fd5b505050506040513d601f19601f820116820180604052508101906109609190611e22565b6001600160a01b03166318160ddd6040518163ffffffff1660e01b815260040160206040518083038186803b15801561099857600080fd5b505afa1580156109ac573d6000803e3d6000fd5b505050506040513d601f19601f820116820180604052508101906109d09190612005565b9050806109dd8a85612269565b6109e79190612249565b6109f1908a612288565b9150506109fc565b50865b604051636635c33d60e11b8152336004820152602481018290526001600160a01b0384169063cc6b867a90604401600060405180830381600087803b158015610a4457600080fd5b505af1158015610a58573d6000803e3d6000fd5b505060405163c952d71360e01b8152336004820152602481018b90526001600160a01b038616925063c952d7139150604401600060405180830381600087803b158015610aa457600080fd5b505af1158015610ab8573d6000803e3d6000fd5b5050604080518c81523360208201529081018b90527f87d4c0b5e30d6808bc8a94ba1c4d839b29d664151551a31753387ee9ef48429b9250606001905060405180910390a198969750505050505050565b84600081604051602001610b1d9190612114565b604051602081830303815290604052805190602001209050604051602001610b44906121d2565b60405160208183030381529060405280519060200120811480610b8a5750604051602001610b71906121b4565b6040516020818303038152906040528051906020012081145b80610bb85750604051602001610b9f90612195565b6040516020818303038152906040528051906020012081145b610bff5760405162461bcd60e51b815260206004820152601860248201527711549497d55394d5541413d495115117d41493d513d0d3d360421b60448201526064016104c2565b6000610c0c888888610dd7565b9050610c1781611a7b565b600081815260208190526040812054907f000000000000000000000000000000000000000000000000000000000000000090610c56846102ca816116d8565b905043816001600160a01b031663e184c9be6040518163ffffffff1660e01b8152600401602060405180830381600087803b158015610c9457600080fd5b505af1158015610ca8573d6000803e3d6000fd5b505050506040513d601f19601f82011682018060405250810190610ccc9190612005565b10610d195760405162461bcd60e51b815260206004820181905260248201527f4552525f53545245414d5f434f4e5441494e535f4143544956455f45504f434860448201526064016104c2565b6040516398d4bab160e01b815260048101859052602481018490526001600160a01b0382811660448301528316906398d4bab190606401600060405180830381600087803b158015610d6a57600080fd5b505af1158015610d7e573d6000803e3d6000fd5b50505050610d918b8b8b60008c8c611711565b60408051858152602081018590527f45cff685e401e07e0edef21bc25fbf844f92797dc908dd4f60bf2cc4e76ba252910160405180910390a15050505050505050505050565b6000838383604051602001610dee93929190612127565b6040516020818303038152906040528051906020012090509392505050565b6040516020016103ad906121d2565b60008181526020819052604081205415610e3857506001919050565b506000919050565b8181610e4b82611a7b565b6000828152602081905260408120805483908110610e7957634e487b7160e01b600052603260045260246000fd5b9060005260206000200160009054906101000a90046001600160a01b0316905043816001600160a01b031663e184c9be6040518163ffffffff1660e01b8152600401602060405180830381600087803b158015610ed557600080fd5b505af1158015610ee9573d6000803e3d6000fd5b505050506040513d601f19601f82011682018060405250810190610f0d9190612005565b1115610f535760405162461bcd60e51b815260206004820152601560248201527411549497d15413d0d217d393d517d1561412549151605a1b60448201526064016104c2565b6000610f5f8686611646565b90506000816001600160a01b031663b4fc8b5a6040518163ffffffff1660e01b815260040160206040518083038186803b158015610f9c57600080fd5b505afa158015610fb0573d6000803e3d6000fd5b505050506040513d601f19601f82011682018060405250810190610fd49190611e22565b6040516370a0823160e01b81523360048201526001600160a01b0391909116906370a082319060240160206040518083038186803b15801561101557600080fd5b505afa158015611029573d6000803e3d6000fd5b505050506040513d601f19601f8201168201806040525081019061104d9190612005565b1161109a5760405162461bcd60e51b815260206004820152601860248201527f4552525f494e53554646494349454e545f42414c414e4345000000000000000060448201526064016104c2565b604051631477f87160e01b81523360048201526000906001600160a01b03831690631477f87190602401602060405180830381600087803b1580156110de57600080fd5b505af11580156110f2573d6000803e3d6000fd5b505050506040513d601f19601f820116820180604052508101906111169190612005565b9050801561125f576000826001600160a01b0316636f307dc36040518163ffffffff1660e01b8152600401602060405180830381600087803b15801561115b57600080fd5b505af115801561116f573d6000803e3d6000fd5b505050506040513d601f19601f820116820180604052508101906111939190611e22565b604051636ce5768960e11b81526001600160a01b038083166004830152336024830152604482018590529192507f00000000000000000000000000000000000000000000000000000000000000009091169063d9caed1290606401600060405180830381600087803b15801561120857600080fd5b505af115801561121c573d6000803e3d6000fd5b5050604080518b8152602081018b90529081018590527f52370b5cb7e3788b6311687596e62accd8b2fa6d3da833170e3d9ae7e5adec5d92506060019050610710565b50505050505050565b6000602052816000526040600020818154811061128457600080fd5b6000918252602090912001546001600160a01b03169150829050565b81816112ab82611a7b565b60008281526020819052604081208054839081106112d957634e487b7160e01b600052603260045260246000fd5b9060005260206000200160009054906101000a90046001600160a01b0316905043816001600160a01b031663e184c9be6040518163ffffffff1660e01b8152600401602060405180830381600087803b15801561133557600080fd5b505af1158015611349573d6000803e3d6000fd5b505050506040513d601f19601f8201168201806040525081019061136d9190612005565b11156113b35760405162461bcd60e51b815260206004820152601560248201527411549497d15413d0d217d393d517d1561412549151605a1b60448201526064016104c2565b60006113bf8686611646565b90506000816001600160a01b0316634be5e79d6040518163ffffffff1660e01b815260040160206040518083038186803b1580156113fc57600080fd5b505afa158015611410573d6000803e3d6000fd5b505050506040513d601f19601f820116820180604052508101906114349190612005565b6040516312663a5960e31b81523360048201529091506000906001600160a01b03841690639331d2c890602401602060405180830381600087803b15801561147b57600080fd5b505af115801561148f573d6000803e3d6000fd5b505050506040513d601f19601f820116820180604052508101906114b39190612005565b905060007f00000000000000000000000000000000000000000000000000000000000000006001600160a01b0316633366cfa38a8a8587896001600160a01b0316636f307dc36040518163ffffffff1660e01b8152600401602060405180830381600087803b15801561152557600080fd5b505af1158015611539573d6000803e3d6000fd5b505050506040513d601f19601f8201168201806040525081019061155d9190611e22565b6040516001600160e01b031960e088901b16815260048101959095526024850193909352604484019190915260648301526001600160a01b031660848201523360a482015260c401602060405180830381600087803b1580156115bf57600080fd5b505af11580156115d3573d6000803e3d6000fd5b505050506040513d601f19601f820116820180604052508101906115f79190612005565b604080518b8152602081018b90529081018290529091507fb80f7fc3fa15679e0e1bf87fa8b5acda4d8f1195a05ad41b2d89592ced8b56519060600160405180910390a1505050505050505050565b600082815260208190526040812080548390811061167457634e487b7160e01b600052603260045260246000fd5b6000918252602090912001546001600160a01b03169392505050565b60008061169d8484611646565b9050806001600160a01b031663b4fc8b5a6040518163ffffffff1660e01b815260040160206040518083038186803b15801561041d57600080fd5b60006116e382610e1c565b6116f05750600019919050565b60008281526020819052604090205461170b90600190612288565b92915050565b600061171e878787610dd7565b6000818152602081905260408120549192507f0000000000000000000000000000000000000000000000000000000000000000906117608a8a8a858a8a611b80565b9050306001600160a01b0316816001600160a01b0316638da5cb5b6040518163ffffffff1660e01b815260040160206040518083038186803b1580156117a557600080fd5b505afa1580156117b9573d6000803e3d6000fd5b505050506040513d601f19601f820116820180604052508101906117dd9190611e22565b6001600160a01b0316146118275760405162461bcd60e51b815260206004820152601160248201527008aa4a4be929cac82989288be8aa09e869607b1b60448201526064016104c2565b826119ba576000816001600160a01b031663789ebcdd6040518163ffffffff1660e01b815260040160206040518083038186803b15801561186757600080fd5b505afa15801561187b573d6000803e3d6000fd5b505050506040513d601f19601f8201168201806040525081019061189f9190611e22565b6001600160a01b03166395d89b416040518163ffffffff1660e01b815260040160006040518083038186803b1580156118d757600080fd5b505afa1580156118eb573d6000803e3d6000fd5b505050506040513d6000823e601f3d908101601f191682016040526119139190810190611e97565b905060008151116119565760405162461bcd60e51b815260206004820152600d60248201526c11549497d393d7d4d6535093d3609a1b60448201526064016104c2565b6040516345cc439f60e11b81526001600160a01b03841690638b98873e90611986908e908e908e90600401612127565b600060405180830381600087803b1580156119a057600080fd5b505af11580156119b4573d6000803e3d6000fd5b50505050505b816001600160a01b031663967091a98b8a848b6119e38a60009081526020819052604090205490565b6040518663ffffffff1660e01b8152600401611a03959493929190612155565b600060405180830381600087803b158015611a1d57600080fd5b505af1158015611a31573d6000803e3d6000fd5b5050506000948552506020848152604085208054600181018255908652942090930180546001600160a01b0319166001600160a01b03909416939093179092555050505050505050565b80611ac85760405162461bcd60e51b815260206004820152601b60248201527f4552525f494e56414c49445f53545245414d5f4b45595f5a45524f000000000060448201526064016104c2565b611ad181610e1c565b611b1d5760405162461bcd60e51b815260206004820152601a60248201527f4552525f53545245414d5f4e4f545f494e495449414c495a454400000000000060448201526064016104c2565b50565b604080516001600160a01b0385811660248301528416604482015260648082018490528251808303909101815260849091019091526020810180516001600160e01b03166323b872dd60e01b179052611b7a908590611bef565b50505050565b600080611b8e888888610dd7565b90506000611b9b826116d8565b90506000308a8a8a8a868a604051602001611bbc9796959493929190612049565b6040516020818303038152906040528051906020012090506000818751602089016000f59b9a5050505050505050505050565b6000611c44826040518060400160405280602081526020017f5361666545524332303a206c6f772d6c6576656c2063616c6c206661696c6564815250856001600160a01b0316611cc69092919063ffffffff16565b805190915015611cc15780806020019051810190611c629190611e3e565b611cc15760405162461bcd60e51b815260206004820152602a60248201527f5361666545524332303a204552433230206f7065726174696f6e20646964206e6044820152691bdd081cdd58d8d9595960b21b60648201526084016104c2565b505050565b6060610455848460008585843b611d1f5760405162461bcd60e51b815260206004820152601d60248201527f416464726573733a2063616c6c20746f206e6f6e2d636f6e747261637400000060448201526064016104c2565b600080866001600160a01b03168587604051611d3b91906120c1565b60006040518083038185875af1925050503d8060008114611d78576040519150601f19603f3d011682016040523d82523d6000602084013e611d7d565b606091505b5091509150611d8d828286611d98565b979650505050505050565b60608315611da7575081610397565b825115611db75782518084602001fd5b8160405162461bcd60e51b81526004016104c29190612114565b600082601f830112611de1578081fd5b8135611df4611def82612221565b6121f0565b818152846020838601011115611e08578283fd5b816020850160208301379081016020019190915292915050565b600060208284031215611e33578081fd5b8151610397816122f7565b600060208284031215611e4f578081fd5b81518015158114610397578182fd5b600060208284031215611e6f578081fd5b5035919050565b60008060408385031215611e88578081fd5b50508035926020909101359150565b600060208284031215611ea8578081fd5b815167ffffffffffffffff811115611ebe578182fd5b8201601f81018413611ece578182fd5b8051611edc611def82612221565b818152856020838501011115611ef0578384fd5b611f0182602083016020860161229f565b95945050505050565b600080600060608486031215611f1e578081fd5b833567ffffffffffffffff811115611f34578182fd5b611f4086828701611dd1565b9350506020840135611f51816122f7565b929592945050506040919091013590565b600080600080600060a08688031215611f79578081fd5b853567ffffffffffffffff80821115611f90578283fd5b611f9c89838a01611dd1565b965060208801359150611fae826122f7565b9094506040870135935060608701359080821115611fca578283fd5b611fd689838a01611dd1565b93506080880135915080821115611feb578283fd5b50611ff888828901611dd1565b9150509295509295909350565b600060208284031215612016578081fd5b5051919050565b6000815180845261203581602086016020860161229f565b601f01601f19169290920160200192915050565b60006bffffffffffffffffffffffff19808a60601b1683528851612074816014860160208d0161229f565b8084019050818960601b166014820152876028820152818760601b16604882015285605c820152845191506120b082607c83016020880161229f565b01607c019998505050505050505050565b600082516120d381846020870161229f565b9190910192915050565b6001600160a01b03851681526080602082018190526000906121019083018661201d565b6040830194909452506060015292915050565b602081526000610397602083018461201d565b60608152600061213a606083018661201d565b6001600160a01b039490941660208301525060400152919050565b60a08152600061216860a083018861201d565b6020830196909652506001600160a01b039390931660408401526060830191909152608090910152919050565b6020808252600590820152642ca2a0a92760d91b604082015260600190565b6020808252600490820152630434f4d560e41b604082015260600190565b6020808252600490820152634141564560e01b604082015260600190565b604051601f8201601f1916810167ffffffffffffffff81118282101715612219576122196122e1565b604052919050565b600067ffffffffffffffff82111561223b5761223b6122e1565b50601f01601f191660200190565b60008261226457634e487b7160e01b81526012600452602481fd5b500490565b6000816000190483118215151615612283576122836122cb565b500290565b60008282101561229a5761229a6122cb565b500390565b60005b838110156122ba5781810151838201526020016122a2565b83811115611b7a5750506000910152565b634e487b7160e01b600052601160045260246000fd5b634e487b7160e01b600052604160045260246000fd5b6001600160a01b0381168114611b1d57600080fdfea2646970667358221220ffc07bfbc213972b4dfa5bfaa7376e8068f85d68a00ee9ab9d12807ade33493464736f6c63430008040033608060405234801561001057600080fd5b5061001a3361001f565b61006f565b600080546001600160a01b038381166001600160a01b0319831681178455604051919092169283917f8be0079c531659141344cd1fd0a4f28419497f9722a3daafe3b4186f6b6457e09190a35050565b61115b8061007e6000396000f3fe608060405234801561001057600080fd5b50600436106100cf5760003560e01c80638da5cb5b1161008c57806399f4134f1161006657806399f4134f146101a1578063d9caed12146101c4578063f2fde38b146101d7578063f86f637d146101ea57600080fd5b80638da5cb5b14610160578063967091a91461017b57806398d4bab11461018e57600080fd5b80633366cfa3146100d4578063408e1aeb146100fa57806347e7ef241461011d578063715018a614610132578063753ced2f1461013a5780638b98873e1461014d575b600080fd5b6100e76100e2366004610e4c565b610215565b6040519081526020015b60405180910390f35b61010d610108366004610ddb565b6102cb565b60405190151581526020016100f1565b61013061012b366004610d90565b610330565b005b610130610446565b6100e7610148366004610ea9565b61047c565b61013061015b366004610ea9565b6104b3565b6000546040516001600160a01b0390911681526020016100f1565b610130610189366004610ef0565b61050c565b61013061019c366004610e14565b6105e7565b61010d6101af366004610ddb565b60016020526000908152604090205460ff1681565b6101306101d2366004610d50565b610792565b6101306101e5366004610d18565b6107d5565b6100e76101f8366004610df3565b600260209081526000928352604080842090915290825290205481565b600080546001600160a01b031633146102495760405162461bcd60e51b815260040161024090611029565b60405180910390fd5b60008781526002602090815260408083208984529091529020548461026e878361107e565b610278919061105e565b60008981526002602090815260408083208b84529091528120805492945084929091906102a690849061109d565b909155506102c090506001600160a01b0385168484610870565b509695505050505050565b60008161031a5760405162461bcd60e51b815260206004820152601860248201527f73747265616d6b65792063616e6e6f74206265207a65726f00000000000000006044820152606401610240565b5060009081526001602052604090205460ff1690565b6000546001600160a01b0316331461035a5760405162461bcd60e51b815260040161024090611029565b60008290506103e78383836001600160a01b0316636f307dc36040518163ffffffff1660e01b8152600401602060405180830381600087803b15801561039f57600080fd5b505af11580156103b3573d6000803e3d6000fd5b505050506040513d601f19601f820116820180604052508101906103d79190610d34565b6001600160a01b031691906108d3565b604051636ea8957160e01b8152600481018390526001600160a01b03821690636ea8957190602401600060405180830381600087803b15801561042957600080fd5b505af115801561043d573d6000803e3d6000fd5b50505050505050565b6000546001600160a01b031633146104705760405162461bcd60e51b815260040161024090611029565b61047a60006109f7565b565b600083838360405160200161049393929190610fcc565b6040516020818303038152906040528051906020012090505b9392505050565b6000546001600160a01b031633146104dd5760405162461bcd60e51b815260040161024090611029565b60006104ea84848461047c565b6000908152600160208190526040909120805460ff1916909117905550505050565b6000546001600160a01b031633146105365760405162461bcd60e51b815260040161024090611029565b600083905061057b8484836001600160a01b0316636f307dc36040518163ffffffff1660e01b8152600401602060405180830381600087803b15801561039f57600080fd5b604051635f59c31f60e11b81526001600160a01b0382169063beb3863e906105ad908990899088908890600401610ffa565b600060405180830381600087803b1580156105c757600080fd5b505af11580156105db573d6000803e3d6000fd5b50505050505050505050565b6000546001600160a01b031633146106115760405162461bcd60e51b815260040161024090611029565b61061a836102cb565b6106775760405162461bcd60e51b815260206004820152602860248201527f696e636f72726563742073747265616d4b65792c2073747265616d20646f65736044820152671b9d08195e1a5cdd60c21b6064820152608401610240565b80600061068560018561109d565b90506000826001600160a01b031663285939846040518163ffffffff1660e01b815260040160206040518083038186803b1580156106c257600080fd5b505afa1580156106d6573d6000803e3d6000fd5b505050506040513d601f19601f820116820180604052508101906106fa9190610f59565b9050826001600160a01b03166379599f966040518163ffffffff1660e01b8152600401602060405180830381600087803b15801561073757600080fd5b505af115801561074b573d6000803e3d6000fd5b505050506040513d601f19601f8201168201806040525081019061076f9190610f59565b506000958652600260209081526040808820938852929052942093909355505050565b6000546001600160a01b031633146107bc5760405162461bcd60e51b815260040161024090611029565b6107d06001600160a01b0384168383610870565b505050565b6000546001600160a01b031633146107ff5760405162461bcd60e51b815260040161024090611029565b6001600160a01b0381166108645760405162461bcd60e51b815260206004820152602660248201527f4f776e61626c653a206e6577206f776e657220697320746865207a65726f206160448201526564647265737360d01b6064820152608401610240565b61086d816109f7565b50565b6040516001600160a01b0383166024820152604481018290526107d090849063a9059cbb60e01b906064015b60408051601f198184030181529190526020810180516001600160e01b03166001600160e01b031990931692909217909152610a47565b80158061095c5750604051636eb1769f60e11b81523060048201526001600160a01b03838116602483015284169063dd62ed3e9060440160206040518083038186803b15801561092257600080fd5b505afa158015610936573d6000803e3d6000fd5b505050506040513d601f19601f8201168201806040525081019061095a9190610f59565b155b6109c75760405162461bcd60e51b815260206004820152603660248201527f5361666545524332303a20617070726f76652066726f6d206e6f6e2d7a65726f60448201527520746f206e6f6e2d7a65726f20616c6c6f77616e636560501b6064820152608401610240565b6040516001600160a01b0383166024820152604481018290526107d090849063095ea7b360e01b9060640161089c565b600080546001600160a01b038381166001600160a01b0319831681178455604051919092169283917f8be0079c531659141344cd1fd0a4f28419497f9722a3daafe3b4186f6b6457e09190a35050565b6000610a9c826040518060400160405280602081526020017f5361666545524332303a206c6f772d6c6576656c2063616c6c206661696c6564815250856001600160a01b0316610b199092919063ffffffff16565b8051909150156107d05780806020019051810190610aba9190610dbb565b6107d05760405162461bcd60e51b815260206004820152602a60248201527f5361666545524332303a204552433230206f7065726174696f6e20646964206e6044820152691bdd081cdd58d8d9595960b21b6064820152608401610240565b6060610b288484600085610b30565b949350505050565b606082471015610b915760405162461bcd60e51b815260206004820152602660248201527f416464726573733a20696e73756666696369656e742062616c616e636520666f6044820152651c8818d85b1b60d21b6064820152608401610240565b843b610bdf5760405162461bcd60e51b815260206004820152601d60248201527f416464726573733a2063616c6c20746f206e6f6e2d636f6e74726163740000006044820152606401610240565b600080866001600160a01b03168587604051610bfb9190610f9d565b60006040518083038185875af1925050503d8060008114610c38576040519150601f19603f3d011682016040523d82523d6000602084013e610c3d565b606091505b5091509150610c4d828286610c58565b979650505050505050565b60608315610c675750816104ac565b825115610c775782518084602001fd5b8160405162461bcd60e51b81526004016102409190610fb9565b600082601f830112610ca1578081fd5b813567ffffffffffffffff80821115610cbc57610cbc6110fa565b604051601f8301601f19908116603f01168101908282118183101715610ce457610ce46110fa565b81604052838152866020858801011115610cfc578485fd5b8360208701602083013792830160200193909352509392505050565b600060208284031215610d29578081fd5b81356104ac81611110565b600060208284031215610d45578081fd5b81516104ac81611110565b600080600060608486031215610d64578182fd5b8335610d6f81611110565b92506020840135610d7f81611110565b929592945050506040919091013590565b60008060408385031215610da2578182fd5b8235610dad81611110565b946020939093013593505050565b600060208284031215610dcc578081fd5b815180151581146104ac578182fd5b600060208284031215610dec578081fd5b5035919050565b60008060408385031215610e05578182fd5b50508035926020909101359150565b600080600060608486031215610e28578283fd5b83359250602084013591506040840135610e4181611110565b809150509250925092565b60008060008060008060c08789031215610e64578182fd5b863595506020870135945060408701359350606087013592506080870135610e8b81611110565b915060a0870135610e9b81611110565b809150509295509295509295565b600080600060608486031215610ebd578283fd5b833567ffffffffffffffff811115610ed3578384fd5b610edf86828701610c91565b9350506020840135610d7f81611110565b600080600080600060a08688031215610f07578081fd5b853567ffffffffffffffff811115610f1d578182fd5b610f2988828901610c91565b955050602086013593506040860135610f4181611110565b94979396509394606081013594506080013592915050565b600060208284031215610f6a578081fd5b5051919050565b60008151808452610f898160208601602086016110b4565b601f01601f19169290920160200192915050565b60008251610faf8184602087016110b4565b9190910192915050565b6020815260006104ac6020830184610f71565b606081526000610fdf6060830186610f71565b6001600160a01b039490941660208301525060400152919050565b60808152600061100d6080830187610f71565b6020830195909552506040810192909252606090910152919050565b6020808252818101527f4f776e61626c653a2063616c6c6572206973206e6f7420746865206f776e6572604082015260600190565b60008261107957634e487b7160e01b81526012600452602481fd5b500490565b6000816000190483118215151615611098576110986110e4565b500290565b6000828210156110af576110af6110e4565b500390565b60005b838110156110cf5781810151838201526020016110b7565b838111156110de576000848401525b50505050565b634e487b7160e01b600052601160045260246000fd5b634e487b7160e01b600052604160045260246000fd5b6001600160a01b038116811461086d57600080fdfea264697066735822122004150d2d32dd99471172ef267281003dff8310b0c190af4b96b5fb9cf102a69f64736f6c63430008040033",
  "linkReferences": {},
  "deployedLinkReferences": {}
}