{
  "_format": "hh-sol-artifact-1",
  "contractName": "Core",
  "sourceName": "contracts/Core.sol",
  "abi": [
    {
      "inputs": [],
      "stateMutability": "nonpayable",
      "type": "constructor"
    },
    {
      "anonymous": false,
      "inputs": [
        {
          "indexed": false,
          "internalType": "bytes32",
          "name": "streamKey",
          "type": "bytes32"
        },
        {
          "indexed": false,
          "internalType": "uint256",
          "name": "futureIndex",
          "type": "uint256"
        }
      ],
      "name": "EpochStarted",
      "type": "event"
    },
    {
      "anonymous": false,
      "inputs": [
        {
          "indexed": false,
          "internalType": "address",
          "name": "underlying",
          "type": "address"
        },
        {
          "indexed": false,
          "internalType": "string",
          "name": "protocol",
          "type": "string"
        },
        {
          "indexed": false,
          "internalType": "uint256",
          "name": "durationBlocks",
          "type": "uint256"
        },
        {
          "indexed": false,
          "internalType": "bytes32",
          "name": "streamKey",
          "type": "bytes32"
        }
      ],
      "name": "NewStream",
      "type": "event"
    },
    {
      "anonymous": false,
      "inputs": [
        {
          "indexed": false,
          "internalType": "bytes32",
          "name": "streamKey",
          "type": "bytes32"
        },
        {
          "indexed": false,
          "internalType": "uint256",
          "name": "epoch",
          "type": "uint256"
        },
        {
          "indexed": false,
          "internalType": "uint256",
          "name": "amount",
          "type": "uint256"
        }
      ],
      "name": "PrincipleRedeemed",
      "type": "event"
    },
    {
      "anonymous": false,
      "inputs": [
        {
          "indexed": false,
          "internalType": "bytes32",
          "name": "streamKey",
          "type": "bytes32"
        },
        {
          "indexed": false,
          "internalType": "address",
          "name": "user",
          "type": "address"
        },
        {
          "indexed": false,
          "internalType": "uint256",
          "name": "amount",
          "type": "uint256"
        }
      ],
      "name": "Subscribed",
      "type": "event"
    },
    {
      "anonymous": false,
      "inputs": [
        {
          "indexed": false,
          "internalType": "bytes32",
          "name": "streamKey",
          "type": "bytes32"
        },
        {
          "indexed": false,
          "internalType": "address",
          "name": "user",
          "type": "address"
        },
        {
          "indexed": false,
          "internalType": "uint256",
          "name": "amount",
          "type": "uint256"
        }
      ],
      "name": "Unsubscribed",
      "type": "event"
    },
    {
      "anonymous": false,
      "inputs": [
        {
          "indexed": false,
          "internalType": "bytes32",
          "name": "streamKey",
          "type": "bytes32"
        },
        {
          "indexed": false,
          "internalType": "uint256",
          "name": "epoch",
          "type": "uint256"
        }
      ],
      "name": "YieldRedeemed",
      "type": "event"
    },
    {
      "inputs": [],
      "name": "aave",
      "outputs": [
        {
          "internalType": "bytes32",
          "name": "",
          "type": "bytes32"
        }
      ],
      "stateMutability": "view",
      "type": "function"
    },
    {
      "inputs": [
        {
          "internalType": "bytes32",
          "name": "_streamKey",
          "type": "bytes32"
        },
        {
          "internalType": "address",
          "name": "_user",
          "type": "address"
        }
      ],
      "name": "claimPlatformTokens",
      "outputs": [],
      "stateMutability": "nonpayable",
      "type": "function"
    },
    {
      "inputs": [],
      "name": "comp",
      "outputs": [
        {
          "internalType": "bytes32",
          "name": "",
          "type": "bytes32"
        }
      ],
      "stateMutability": "view",
      "type": "function"
    },
    {
      "inputs": [
        {
          "internalType": "bytes32",
          "name": "_userKey",
          "type": "bytes32"
        },
        {
          "internalType": "uint256",
          "name": "_epoch",
          "type": "uint256"
        }
      ],
      "name": "getClaimableBalance",
      "outputs": [
        {
          "internalType": "uint256",
          "name": "",
          "type": "uint256"
        }
      ],
      "stateMutability": "view",
      "type": "function"
    },
    {
      "inputs": [
        {
          "internalType": "bytes32",
          "name": "_streamKey",
          "type": "bytes32"
        }
      ],
      "name": "getCurrentEpoch",
      "outputs": [
        {
          "internalType": "uint256",
          "name": "",
          "type": "uint256"
        }
      ],
      "stateMutability": "view",
      "type": "function"
    },
    {
      "inputs": [
        {
          "internalType": "bytes32",
          "name": "_streamKey",
          "type": "bytes32"
        },
        {
          "internalType": "uint256",
          "name": "_epoch",
          "type": "uint256"
        }
      ],
      "name": "getEpochAddress",
      "outputs": [
        {
          "internalType": "address",
          "name": "",
          "type": "address"
        }
      ],
      "stateMutability": "view",
      "type": "function"
    },
    {
      "inputs": [
        {
          "internalType": "bytes32",
          "name": "_streamKey",
          "type": "bytes32"
        }
      ],
      "name": "getNextEpoch",
      "outputs": [
        {
          "internalType": "uint256",
          "name": "",
          "type": "uint256"
        }
      ],
      "stateMutability": "view",
      "type": "function"
    },
    {
      "inputs": [
        {
          "internalType": "bytes32",
          "name": "_streamKey",
          "type": "bytes32"
        }
      ],
      "name": "getOT",
      "outputs": [
        {
          "internalType": "address",
          "name": "",
          "type": "address"
        }
      ],
      "stateMutability": "view",
      "type": "function"
    },
    {
      "inputs": [
        {
          "internalType": "string",
          "name": "_protocol",
          "type": "string"
        },
        {
          "internalType": "address",
          "name": "_underlying",
          "type": "address"
        },
        {
          "internalType": "uint256",
          "name": "_duration",
          "type": "uint256"
        }
      ],
      "name": "getStreamKey",
      "outputs": [
        {
          "internalType": "bytes32",
          "name": "",
          "type": "bytes32"
        }
      ],
      "stateMutability": "pure",
      "type": "function"
    },
    {
      "inputs": [
        {
          "internalType": "address",
          "name": "_user",
          "type": "address"
        },
        {
          "internalType": "bytes32",
          "name": "_streamKey",
          "type": "bytes32"
        }
      ],
      "name": "getUserKey",
      "outputs": [
        {
          "internalType": "bytes32",
          "name": "",
          "type": "bytes32"
        }
      ],
      "stateMutability": "pure",
      "type": "function"
    },
    {
      "inputs": [
        {
          "internalType": "bytes32",
          "name": "_streamKey",
          "type": "bytes32"
        },
        {
          "internalType": "uint256",
          "name": "_epoch",
          "type": "uint256"
        }
      ],
      "name": "getYT",
      "outputs": [
        {
          "internalType": "address",
          "name": "",
          "type": "address"
        }
      ],
      "stateMutability": "view",
      "type": "function"
    },
    {
      "inputs": [
        {
          "internalType": "bytes32",
          "name": "_streamKey",
          "type": "bytes32"
        },
        {
          "internalType": "uint256",
          "name": "_epoch",
          "type": "uint256"
        }
      ],
      "name": "getYieldGenerated",
      "outputs": [
        {
          "internalType": "uint256",
          "name": "",
          "type": "uint256"
        }
      ],
      "stateMutability": "view",
      "type": "function"
    },
    {
      "inputs": [
        {
          "internalType": "bytes32",
          "name": "_streamKey",
          "type": "bytes32"
        },
        {
          "internalType": "address",
          "name": "_user",
          "type": "address"
        }
      ],
      "name": "hasClaimedPlatformTokens",
      "outputs": [
        {
          "internalType": "bool",
          "name": "",
          "type": "bool"
        }
      ],
      "stateMutability": "view",
      "type": "function"
    },
    {
      "inputs": [
        {
          "internalType": "bytes32",
          "name": "_streamKey",
          "type": "bytes32"
        }
      ],
      "name": "isStreamInitiazed",
      "outputs": [
        {
          "internalType": "bool",
          "name": "",
          "type": "bool"
        }
      ],
      "stateMutability": "view",
      "type": "function"
    },
    {
      "inputs": [],
      "name": "owner",
      "outputs": [
        {
          "internalType": "address",
          "name": "",
          "type": "address"
        }
      ],
      "stateMutability": "view",
      "type": "function"
    },
    {
      "inputs": [
        {
          "internalType": "bytes32",
          "name": "_streamKey",
          "type": "bytes32"
        },
        {
          "internalType": "uint256",
          "name": "_epoch",
          "type": "uint256"
        }
      ],
      "name": "redeemPrinciple",
      "outputs": [],
      "stateMutability": "nonpayable",
      "type": "function"
    },
    {
      "inputs": [
        {
          "internalType": "bytes32",
          "name": "_streamKey",
          "type": "bytes32"
        },
        {
          "internalType": "uint256",
          "name": "_epoch",
          "type": "uint256"
        }
      ],
      "name": "redeemYield",
      "outputs": [],
      "stateMutability": "nonpayable",
      "type": "function"
    },
    {
      "inputs": [
        {
          "internalType": "string",
          "name": "_protocol",
          "type": "string"
        },
        {
          "internalType": "address",
          "name": "_underlying",
          "type": "address"
        },
        {
          "internalType": "uint256",
          "name": "_durationBlocks",
          "type": "uint256"
        }
      ],
      "name": "registerNewStream",
      "outputs": [],
      "stateMutability": "nonpayable",
      "type": "function"
    },
    {
      "inputs": [
        {
          "internalType": "string",
          "name": "_protocol",
          "type": "string"
        },
        {
          "internalType": "address",
          "name": "_underlying",
          "type": "address"
        },
        {
          "internalType": "uint256",
          "name": "_durationBlocks",
          "type": "uint256"
        },
        {
          "internalType": "bytes",
          "name": "_bytecode",
          "type": "bytes"
        },
        {
          "internalType": "bytes",
          "name": "_extraData",
          "type": "bytes"
        }
      ],
      "name": "startEpoch",
      "outputs": [],
      "stateMutability": "nonpayable",
      "type": "function"
    },
    {
      "inputs": [
        {
          "internalType": "bytes32",
          "name": "",
          "type": "bytes32"
        },
        {
          "internalType": "uint256",
          "name": "",
          "type": "uint256"
        }
      ],
      "name": "streams",
      "outputs": [
        {
          "internalType": "address",
          "name": "",
          "type": "address"
        }
      ],
      "stateMutability": "view",
      "type": "function"
    },
    {
      "inputs": [
        {
          "internalType": "bytes32",
          "name": "_streamKey",
          "type": "bytes32"
        },
        {
          "internalType": "uint256",
          "name": "_amountUnderlying",
          "type": "uint256"
        }
      ],
      "name": "subscribe",
      "outputs": [
        {
          "internalType": "uint256",
          "name": "",
          "type": "uint256"
        },
        {
          "internalType": "uint256",
          "name": "",
          "type": "uint256"
        }
      ],
      "stateMutability": "nonpayable",
      "type": "function"
    },
    {
      "inputs": [],
      "name": "treasuryAddress",
      "outputs": [
        {
          "internalType": "address",
          "name": "",
          "type": "address"
        }
      ],
      "stateMutability": "view",
      "type": "function"
    },
    {
      "inputs": [
        {
          "internalType": "bytes32",
          "name": "_streamKey",
          "type": "bytes32"
        },
        {
          "internalType": "uint256",
          "name": "_otAmountToBurn",
          "type": "uint256"
        }
      ],
      "name": "unsubscribe",
      "outputs": [],
      "stateMutability": "nonpayable",
      "type": "function"
    },
    {
      "inputs": [
        {
          "internalType": "bytes32",
          "name": "",
          "type": "bytes32"
        }
      ],
      "name": "userDetailsPerStream",
      "outputs": [
        {
          "internalType": "bool",
          "name": "exists",
          "type": "bool"
        },
        {
          "internalType": "uint256",
          "name": "lastClaimedEpochID",
          "type": "uint256"
        }
      ],
      "stateMutability": "view",
      "type": "function"
    },
    {
      "inputs": [],
      "name": "yearn",
      "outputs": [
        {
          "internalType": "bytes32",
          "name": "",
          "type": "bytes32"
        }
      ],
      "stateMutability": "view",
      "type": "function"
    }
  ],
  "bytecode": "0x60c06040523480156200001157600080fd5b503360601b60805260405162000027906200005b565b604051809103906000f08015801562000044573d6000803e3d6000fd5b5060601b6001600160601b03191660a05262000069565b6135ee8062002b3283390190565b60805160601c60a05160601c612a42620000f06000396000818161038f0152818161040e0152818161066101528181610cf301528181610dfa01528181610ec8015281816110ce015281816115220152818161184e01528181611b7a01528181611dc801528181611fff01526120700152600081816102de01526108b30152612a426000f3fe608060405234801561001057600080fd5b50600436106101735760003560e01c80636b733133116100de578063b93bd1ab11610097578063c5f956af11610071578063c5f956af1461038a578063df9ff772146103b1578063e3d41e5d146103c4578063fee46566146103d757600080fd5b8063b93bd1ab14610344578063c2449e4214610357578063c5f360f01461036a57600080fd5b80636b73313314610298578063753ced2f146102ab5780637acf4dfe146102be578063819faf7b146102d15780638da5cb5b146102d9578063b0927efc1461030057600080fd5b80632c1e036d116101305780632c1e036d1461021657806340f745661461023957806343ff7ff21461024c57806345e5a84b1461025f578063496a46ed146102725780634c675c0a1461028557600080fd5b80630778f0ac146101785780630bbac951146101a5578063109d0af8146101bb57806311b90f82146101c35780631a76fe09146101ee5780632bf33c8614610203575b600080fd5b61018b61018636600461249e565b6103ea565b604080519283526020830191909152015b60405180910390f35b6101ad6107c0565b60405190815260200161019c565b6101ad6107e8565b6101d66101d136600461249e565b6107f7565b6040516001600160a01b03909116815260200161019c565b6102016101fc366004612532565b6108a8565b005b6101ad61021136600461240c565b610b8a565b610229610224366004612457565b610bd8565b604051901515815260200161019c565b61020161024736600461249e565b610bfc565b6101ad61025a36600461249e565b610ea8565b61020161026d36600461258a565b610f51565b6101ad61028036600461249e565b6112f9565b61020161029336600461246f565b61133c565b6101d66102a6366004612457565b611509565b6101ad6102b9366004612532565b6115aa565b6102296102cc36600461246f565b6115e0565b6101ad611618565b6101d67f000000000000000000000000000000000000000000000000000000000000000081565b61032d61030e366004612457565b6001602081905260009182526040909120805491015460ff9091169082565b60408051921515835260208301919091520161019c565b61020161035236600461249e565b611627565b6101d661036536600461249e565b6118f2565b6101ad610378366004612457565b60009081526020819052604090205490565b6101d67f000000000000000000000000000000000000000000000000000000000000000081565b6102016103bf36600461249e565b61192a565b6101d66103d236600461249e565b611cdc565b6101ad6103e5366004612457565b611d26565b60008060006103f885611d26565b905060006104068683611cdc565b90506104b2337f000000000000000000000000000000000000000000000000000000000000000087846001600160a01b0316636f307dc36040518163ffffffff1660e01b8152600401602060405180830381600087803b15801561046957600080fd5b505af115801561047d573d6000803e3d6000fd5b505050506040513d601f19601f820116820180604052508101906104a191906123f0565b6001600160a01b0316929190611d41565b6000816001600160a01b031663285939846040518163ffffffff1660e01b815260040160206040518083038186803b1580156104ed57600080fd5b505afa158015610501573d6000803e3d6000fd5b505050506040513d601f19601f82011682018060405250810190610525919061262d565b90506000811561063b576000836001600160a01b03166304aa50ad6040518163ffffffff1660e01b815260040160206040518083038186803b15801561056a57600080fd5b505afa15801561057e573d6000803e3d6000fd5b505050506040513d601f19601f820116820180604052508101906105a291906123f0565b6001600160a01b03166318160ddd6040518163ffffffff1660e01b815260040160206040518083038186803b1580156105da57600080fd5b505afa1580156105ee573d6000803e3d6000fd5b505050506040513d601f19601f82011682018060405250810190610612919061262d565b90508061061f898561294b565b610629919061292b565b610633908961296a565b91505061063e565b50855b604051632851debb60e21b815233600482015260248101899052604481018290527f00000000000000000000000000000000000000000000000000000000000000006001600160a01b03169063a1477aec90606401600060405180830381600087803b1580156106ad57600080fd5b505af11580156106c1573d6000803e3d6000fd5b505060405163c952d71360e01b8152336004820152602481018a90526001600160a01b038616925063c952d7139150604401600060405180830381600087803b15801561070d57600080fd5b505af1158015610721573d6000803e3d6000fd5b50505050600060016000610735338c610b8a565b8152602081019190915260400160002060018101869055805490915060ff161561076857610763893361133c565b610774565b805460ff191660011781555b604080518a81523360208201529081018990527fe22e8c2d8a284063fec10f270bc3c776ffb40bcf816b73eef36354d5f3d7b3d49060600160405180910390a150979596505050505050565b6040516020016107cf9061282f565b6040516020818303038152906040528051906020012081565b6040516020016107cf9061284e565b60008082116108215760405162461bcd60e51b81526004016108189061286c565b60405180910390fd5b600061082d8484611cdc565b9050806001600160a01b03166304aa50ad6040518163ffffffff1660e01b815260040160206040518083038186803b15801561086857600080fd5b505afa15801561087c573d6000803e3d6000fd5b505050506040513d601f19601f820116820180604052508101906108a091906123f0565b949350505050565b336001600160a01b037f000000000000000000000000000000000000000000000000000000000000000016146109115760405162461bcd60e51b815260206004820152600e60248201526d22a9292fa7a7262cafa7aba722a960911b6044820152606401610818565b82600081604051602001610925919061273c565b60405160208183030381529060405280519060200120905060405160200161094c9061289c565b6040516020818303038152906040528051906020012081148061099257506040516020016109799061284e565b6040516020818303038152906040528051906020012081145b806109c057506040516020016109a79061282f565b6040516020818303038152906040528051906020012081145b610a075760405162461bcd60e51b815260206004820152601860248201527711549497d55394d5541413d495115117d41493d513d0d3d360421b6044820152606401610818565b6001600160a01b038416610a5d5760405162461bcd60e51b815260206004820152601860248201527f4552525f494e56414c49445f414444524553535f5a45524f00000000000000006044820152606401610818565b60008311610aad5760405162461bcd60e51b815260206004820152601960248201527f4552525f494e56414c49445f4455524154494f4e5f5a45524f000000000000006044820152606401610818565b6000610aba8686866115aa565b60008181526020819052604090205490915015610b195760405162461bcd60e51b815260206004820152601960248201527f4552525f53545245414d5f414c52454144595f455849535453000000000000006044820152606401610818565b6000818152602081815260408083208054600181018255908452919092200180546001600160a01b0319169055517f4e220215f4796a05986fbf141e4f83fef7e8c43b1b644641f1fd171bb26b09e290610b7a908790899088908690612705565b60405180910390a1505050505050565b60008183604051602001610bba92919091825260601b6bffffffffffffffffffffffff1916602082015260340190565b60405160208183030381529060405280519060200120905092915050565b60008181526020819052604081205415610bf457506001919050565b506000919050565b80610c495760405162461bcd60e51b815260206004820152601760248201527f4552525f494e56414c49445f414d4f554e545f5a45524f0000000000000000006044820152606401610818565b81610c665760405162461bcd60e51b8152600401610818906127f8565b6000610c723384610b8a565b600081815260016020526040902080549192509060ff16610cca5760405162461bcd60e51b815260206004820152601260248201527111549497d554d15497d393d517d193d5539160721b6044820152606401610818565b610cd484336115e0565b610ce257610ce2843361133c565b6000610ced85611d26565b905060007f00000000000000000000000000000000000000000000000000000000000000006001600160a01b031663f47f6ab487610d2b8986611cdc565b6040516001600160e01b031960e085901b16815260048101929092526001600160a01b0316602482015260440160206040518083038186803b158015610d7057600080fd5b505afa158015610d84573d6000803e3d6000fd5b505050506040513d601f19601f82011682018060405250810190610da8919061262d565b90506000610db6828761294b565b600086815260016020908152604080832087845260020190915290208190559050604051634e2a5a0560e01b815260048101889052602481018790523360448201527f00000000000000000000000000000000000000000000000000000000000000006001600160a01b031690634e2a5a0590606401600060405180830381600087803b158015610e4657600080fd5b505af1158015610e5a573d6000803e3d6000fd5b5050604080518a81523360208201529081018990527fad3f1e826f40b7f0bd26a4160ec1c5c80edc86e57aa52100408ff485c24f72839250606001905060405180910390a150505050505050565b60405163f86f637d60e01b815260048101839052602481018290526000907f00000000000000000000000000000000000000000000000000000000000000006001600160a01b03169063f86f637d9060440160206040518083038186803b158015610f1257600080fd5b505afa158015610f26573d6000803e3d6000fd5b505050506040513d601f19601f82011682018060405250810190610f4a919061262d565b9392505050565b84600081604051602001610f65919061273c565b604051602081830303815290604052805190602001209050604051602001610f8c9061289c565b60405160208183030381529060405280519060200120811480610fd25750604051602001610fb99061284e565b6040516020818303038152906040528051906020012081145b806110005750604051602001610fe79061282f565b6040516020818303038152906040528051906020012081145b6110475760405162461bcd60e51b815260206004820152601860248201527711549497d55394d5541413d495115117d41493d513d0d3d360421b6044820152606401610818565b60006110548888886115aa565b600081815260208190526040812054919250611073836103d281611d26565b905061107e83610bd8565b6110ca5760405162461bcd60e51b815260206004820152601a60248201527f4552525f53545245414d5f4e4f545f494e495449414c495a45440000000000006044820152606401610818565b60007f0000000000000000000000000000000000000000000000000000000000000000600184111561129f5743836001600160a01b031663e184c9be6040518163ffffffff1660e01b8152600401602060405180830381600087803b15801561113257600080fd5b505af1158015611146573d6000803e3d6000fd5b505050506040513d601f19601f8201168201806040525081019061116a919061262d565b106111b75760405162461bcd60e51b815260206004820181905260248201527f4552525f53545245414d5f434f4e5441494e535f4143544956455f45504f43486044820152606401610818565b6040516398d4bab160e01b815260048101869052602481018590526001600160a01b0384811660448301528216906398d4bab190606401600060405180830381600087803b15801561120857600080fd5b505af115801561121c573d6000803e3d6000fd5b505060405163b1dbf3dd60e01b8152600481018890526001600160a01b038416925063b1dbf3dd915060240160206040518083038186803b15801561126057600080fd5b505afa158015611274573d6000803e3d6000fd5b505050506040513d601f19601f82011682018060405250810190611298919061262d565b91506112a4565b600091505b6112b28c8c8c858d8d611da1565b60408051868152602081018690527f45cff685e401e07e0edef21bc25fbf844f92797dc908dd4f60bf2cc4e76ba252910160405180910390a1505050505050505050505050565b600080821161131a5760405162461bcd60e51b81526004016108189061286c565b5060009182526001602090815260408084209284526002909201905290205490565b60006001600061134c8486610b8a565b81526020019081526020016000209050806001015461136a84611d26565b141561137557505050565b6000816001015460016113889190612913565b90505b61139484611d26565b81116114d85760008481526020819052604090208054829081106113c857634e487b7160e01b600052603260045260246000fd5b6000918252602090912001546001600160a01b031663b45a7df3846113ec87611509565b6040516370a0823160e01b81526001600160a01b03888116600483015291909116906370a082319060240160206040518083038186803b15801561142f57600080fd5b505afa158015611443573d6000803e3d6000fd5b505050506040513d601f19601f82011682018060405250810190611467919061262d565b6040516001600160e01b031960e085901b1681526001600160a01b0390921660048301526024820152604401600060405180830381600087803b1580156114ad57600080fd5b505af11580156114c1573d6000803e3d6000fd5b5050505080806114d0906129ad565b91505061138b565b506114e283611d26565b600160006114f08587610b8a565b8152602081019190915260400160002060010155505050565b604051631c69b8b360e31b8152600481018290526000907f00000000000000000000000000000000000000000000000000000000000000006001600160a01b03169063e34dc5989060240160206040518083038186803b15801561156c57600080fd5b505afa158015611580573d6000803e3d6000fd5b505050506040513d601f19601f820116820180604052508101906115a491906123f0565b92915050565b60008383836040516020016115c19392919061274f565b6040516020818303038152906040528051906020012090509392505050565b600080600160006115f18587610b8a565b81526020019081526020016000209050806001015461160f85611d26565b14949350505050565b6040516020016107cf9061289c565b806116445760405162461bcd60e51b81526004016108189061286c565b816116615760405162461bcd60e51b8152600401610818906127f8565b600061166d3384610b8a565b60008181526001602052604090205490915060ff166116ce5760405162461bcd60e51b815260206004820152601a60248201527f4552525f535542534352495054494f4e5f4e4f545f464f554e440000000000006044820152606401610818565b60006116da8484611cdc565b9050806001600160a01b031663e184c9be6040518163ffffffff1660e01b8152600401602060405180830381600087803b15801561171757600080fd5b505af115801561172b573d6000803e3d6000fd5b505050506040513d601f19601f8201168201806040525081019061174f919061262d565b4310156117965760405162461bcd60e51b815260206004820152601560248201527411549497d15413d0d217d393d517d3505515549151605a1b6044820152606401610818565b60006117a283856112f9565b905080156118eb576000826001600160a01b0316636f307dc36040518163ffffffff1660e01b8152600401602060405180830381600087803b1580156117e757600080fd5b505af11580156117fb573d6000803e3d6000fd5b505050506040513d601f19601f8201168201806040525081019061181f91906123f0565b604051636ce5768960e11b81526001600160a01b038083166004830152336024830152604482018590529192507f00000000000000000000000000000000000000000000000000000000000000009091169063d9caed1290606401600060405180830381600087803b15801561189457600080fd5b505af11580156118a8573d6000803e3d6000fd5b505060408051898152602081018990529081018590527f52370b5cb7e3788b6311687596e62accd8b2fa6d3da833170e3d9ae7e5adec5d92506060019050610b7a565b5050505050565b6000602052816000526040600020818154811061190e57600080fd5b6000918252602090912001546001600160a01b03169150829050565b81816000806000848152602001908152602001600020828154811061195f57634e487b7160e01b600052603260045260246000fd5b9060005260206000200160009054906101000a90046001600160a01b0316905043816001600160a01b031663e184c9be6040518163ffffffff1660e01b8152600401602060405180830381600087803b1580156119bb57600080fd5b505af11580156119cf573d6000803e3d6000fd5b505050506040513d601f19601f820116820180604052508101906119f3919061262d565b1115611a395760405162461bcd60e51b815260206004820152601560248201527411549497d15413d0d217d393d517d1561412549151605a1b6044820152606401610818565b60008411611a595760405162461bcd60e51b81526004016108189061286c565b84611a765760405162461bcd60e51b8152600401610818906127f8565b6000611a828686611cdc565b90506000816001600160a01b0316634be5e79d6040518163ffffffff1660e01b815260040160206040518083038186803b158015611abf57600080fd5b505afa158015611ad3573d6000803e3d6000fd5b505050506040513d601f19601f82011682018060405250810190611af7919061262d565b6040516312663a5960e31b81523360048201529091506000906001600160a01b03841690639331d2c890602401602060405180830381600087803b158015611b3e57600080fd5b505af1158015611b52573d6000803e3d6000fd5b505050506040513d601f19601f82011682018060405250810190611b76919061262d565b90507f00000000000000000000000000000000000000000000000000000000000000006001600160a01b0316633366cfa389898486886001600160a01b0316636f307dc36040518163ffffffff1660e01b8152600401602060405180830381600087803b158015611be657600080fd5b505af1158015611bfa573d6000803e3d6000fd5b505050506040513d601f19601f82011682018060405250810190611c1e91906123f0565b6040516001600160e01b031960e088901b16815260048101959095526024850193909352604484019190915260648301526001600160a01b031660848201523360a482015260c401600060405180830381600087803b158015611c8057600080fd5b505af1158015611c94573d6000803e3d6000fd5b5050604080518b8152602081018b90527ff14eb2596b77b9dc1268d92100d81619c716e6e73ee460841d220c0c19a83b8d935001905060405180910390a15050505050505050565b6000828152602081905260408120805483908110611d0a57634e487b7160e01b600052603260045260246000fd5b6000918252602090912001546001600160a01b03169392505050565b6000818152602081905260408120546115a49060019061296a565b604080516001600160a01b0385811660248301528416604482015260648082018490528251808303909101815260849091019091526020810180516001600160e01b03166323b872dd60e01b179052611d9b90859061214e565b50505050565b6000611dae8787876115aa565b600081815260208190526040812054919250611dee8989897f00000000000000000000000000000000000000000000000000000000000000008989612225565b9050306001600160a01b0316816001600160a01b0316638da5cb5b6040518163ffffffff1660e01b815260040160206040518083038186803b158015611e3357600080fd5b505afa158015611e47573d6000803e3d6000fd5b505050506040513d601f19601f82011682018060405250810190611e6b91906123f0565b6001600160a01b031614611eb55760405162461bcd60e51b815260206004820152601160248201527008aa4a4be929cac82989288be8aa09e869607b1b6044820152606401610818565b816001141561206e576000816001600160a01b031663789ebcdd6040518163ffffffff1660e01b815260040160206040518083038186803b158015611ef957600080fd5b505afa158015611f0d573d6000803e3d6000fd5b505050506040513d601f19601f82011682018060405250810190611f3191906123f0565b6001600160a01b03166395d89b416040518163ffffffff1660e01b815260040160006040518083038186803b158015611f6957600080fd5b505afa158015611f7d573d6000803e3d6000fd5b505050506040513d6000823e601f3d908101601f19168201604052611fa591908101906124bf565b90506000815111611fe85760405162461bcd60e51b815260206004820152600d60248201526c11549497d393d7d4d6535093d3609a1b6044820152606401610818565b60405163fea8436f60e01b81526001600160a01b037f0000000000000000000000000000000000000000000000000000000000000000169063fea8436f9061203a908d908d908d90879060040161277d565b600060405180830381600087803b15801561205457600080fd5b505af1158015612068573d6000803e3d6000fd5b50505050505b7f00000000000000000000000000000000000000000000000000000000000000006001600160a01b031663967091a98a89848a6120b78960009081526020819052604090205490565b6040518663ffffffff1660e01b81526004016120d79594939291906127b8565b600060405180830381600087803b1580156120f157600080fd5b505af1158015612105573d6000803e3d6000fd5b5050506000938452506020838152604084208054600181018255908552932090920180546001600160a01b0319166001600160a01b039093169290921790915550505050505050565b60006121a3826040518060400160405280602081526020017f5361666545524332303a206c6f772d6c6576656c2063616c6c206661696c6564815250856001600160a01b03166122949092919063ffffffff16565b80519091501561222057808060200190518101906121c19190612437565b6122205760405162461bcd60e51b815260206004820152602a60248201527f5361666545524332303a204552433230206f7065726174696f6e20646964206e6044820152691bdd081cdd58d8d9595960b21b6064820152608401610818565b505050565b6000806122338888886115aa565b9050600061224082611d26565b90506000308a8a8a8a868a6040516020016122619796959493929190612671565b6040516020818303038152906040528051906020012090506000818751602089016000f59b9a5050505050505050505050565b60606108a0848460008585843b6122ed5760405162461bcd60e51b815260206004820152601d60248201527f416464726573733a2063616c6c20746f206e6f6e2d636f6e74726163740000006044820152606401610818565b600080866001600160a01b0316858760405161230991906126e9565b60006040518083038185875af1925050503d8060008114612346576040519150601f19603f3d011682016040523d82523d6000602084013e61234b565b606091505b509150915061235b828286612366565b979650505050505050565b60608315612375575081610f4a565b8251156123855782518084602001fd5b8160405162461bcd60e51b8152600401610818919061273c565b600082601f8301126123af578081fd5b81356123c26123bd826128eb565b6128ba565b8181528460208386010111156123d6578283fd5b816020850160208301379081016020019190915292915050565b600060208284031215612401578081fd5b8151610f4a816129f4565b6000806040838503121561241e578081fd5b8235612429816129f4565b946020939093013593505050565b600060208284031215612448578081fd5b81518015158114610f4a578182fd5b600060208284031215612468578081fd5b5035919050565b60008060408385031215612481578182fd5b823591506020830135612493816129f4565b809150509250929050565b600080604083850312156124b0578182fd5b50508035926020909101359150565b6000602082840312156124d0578081fd5b815167ffffffffffffffff8111156124e6578182fd5b8201601f810184136124f6578182fd5b80516125046123bd826128eb565b818152856020838501011115612518578384fd5b612529826020830160208601612981565b95945050505050565b600080600060608486031215612546578081fd5b833567ffffffffffffffff81111561255c578182fd5b6125688682870161239f565b9350506020840135612579816129f4565b929592945050506040919091013590565b600080600080600060a086880312156125a1578081fd5b853567ffffffffffffffff808211156125b8578283fd5b6125c489838a0161239f565b9650602088013591506125d6826129f4565b90945060408701359350606087013590808211156125f2578283fd5b6125fe89838a0161239f565b93506080880135915080821115612613578283fd5b506126208882890161239f565b9150509295509295909350565b60006020828403121561263e578081fd5b5051919050565b6000815180845261265d816020860160208601612981565b601f01601f19169290920160200192915050565b60006bffffffffffffffffffffffff19808a60601b168352885161269c816014860160208d01612981565b8084019050818960601b166014820152876028820152818760601b16604882015285605c820152845191506126d882607c830160208801612981565b01607c019998505050505050505050565b600082516126fb818460208701612981565b9190910192915050565b6001600160a01b038516815260806020820181905260009061272990830186612645565b6040830194909452506060015292915050565b602081526000610f4a6020830184612645565b6060815260006127626060830186612645565b6001600160a01b039490941660208301525060400152919050565b6080815260006127906080830187612645565b6001600160a01b038616602084015260408301859052828103606084015261235b8185612645565b60a0815260006127cb60a0830188612645565b6020830196909652506001600160a01b039390931660408401526060830191909152608090910152919050565b6020808252601b908201527f4552525f494e56414c49445f53545245414d5f4b45595f5a45524f0000000000604082015260600190565b6020808252600590820152642ca2a0a92760d91b604082015260600190565b6020808252600490820152630434f4d560e41b604082015260600190565b6020808252601690820152754552525f494e56414c49445f45504f43485f5a45524f60501b604082015260600190565b6020808252600490820152634141564560e01b604082015260600190565b604051601f8201601f1916810167ffffffffffffffff811182821017156128e3576128e36129de565b604052919050565b600067ffffffffffffffff821115612905576129056129de565b50601f01601f191660200190565b60008219821115612926576129266129c8565b500190565b60008261294657634e487b7160e01b81526012600452602481fd5b500490565b6000816000190483118215151615612965576129656129c8565b500290565b60008282101561297c5761297c6129c8565b500390565b60005b8381101561299c578181015183820152602001612984565b83811115611d9b5750506000910152565b60006000198214156129c1576129c16129c8565b5060010190565b634e487b7160e01b600052601160045260246000fd5b634e487b7160e01b600052604160045260246000fd5b6001600160a01b0381168114612a0957600080fd5b5056fea26469706673582212207b3be259936259282fa40af8d43a75549e75dd1e6a20292dd80ceeda883c451a64736f6c63430008040033608060405234801561001057600080fd5b50600080546001600160a01b031916339081178255604051909182917f8be0079c531659141344cd1fd0a4f28419497f9722a3daafe3b4186f6b6457e0908290a35061358d806100616000396000f3fe60806040523480156200001157600080fd5b5060043610620001215760003560e01c8063a1477aec11620000af578063e34dc598116200007a578063e34dc59814620002a1578063f2fde38b14620002d2578063f47f6ab414620002e9578063f86f637d1462000300578063fea8436f146200032e57600080fd5b8063a1477aec1462000206578063a22439df146200021d578063b1dbf3dd1462000273578063d9caed12146200028a57600080fd5b8063753ced2f11620000f0578063753ced2f146200018c5780638da5cb5b14620001b2578063967091a914620001d857806398d4bab114620001ef57600080fd5b80633366cfa31462000126578063408e1aeb146200013f5780634e2a5a05146200016b578063715018a61462000182575b600080fd5b6200013d6200013736600462001544565b62000345565b005b62000156620001503660046200149c565b620003d1565b60405190151581526020015b60405180910390f35b6200013d6200017c36600462001509565b62000438565b6200013d620004e6565b620001a36200019d366004620015a6565b6200055d565b60405190815260200162000162565b6000546001600160a01b03165b6040516001600160a01b03909116815260200162000162565b6200013d620001e93660046200167b565b62000596565b6200013d6200020036600462001509565b620006c6565b6200013d6200021736600462001443565b62000882565b620002536200022e3660046200149c565b60016020526000908152604090205460ff81169061010090046001600160a01b031682565b6040805192151583526001600160a01b0390911660208301520162000162565b620001a3620002843660046200149c565b62000969565b6200013d6200029b366004620013fe565b62000a00565b620001bf620002b23660046200149c565b60009081526001602052604090205461010090046001600160a01b031690565b6200013d620002e3366004620013c0565b62000a48565b620001a3620002fa366004620014b5565b62000b37565b620001a362000311366004620014e7565b600260209081526000928352604080842090915290825290205481565b6200013d6200033f366004620015f3565b62000c57565b6000546001600160a01b031633146200037b5760405162461bcd60e51b81526004016200037290620018d9565b60405180910390fd5b60008681526002602090815260408083208884529091528120549085620003a3868462001957565b620003af919062001936565b9050620003c76001600160a01b038516848362000d61565b5050505050505050565b600081620004225760405162461bcd60e51b815260206004820152601860248201527f73747265616d6b65792063616e6e6f74206265207a65726f0000000000000000604482015260640162000372565b5060009081526001602052604090205460ff1690565b6000546001600160a01b03163314620004655760405162461bcd60e51b81526004016200037290620018d9565b60008381526001602052604090819020549051632770a7eb60e21b81526001600160a01b0383811660048301526024820185905261010090920490911690639dc29fac906044015b600060405180830381600087803b158015620004c857600080fd5b505af1158015620004dd573d6000803e3d6000fd5b50505050505050565b6000546001600160a01b03163314620005135760405162461bcd60e51b81526004016200037290620018d9565b600080546040516001600160a01b03909116907f8be0079c531659141344cd1fd0a4f28419497f9722a3daafe3b4186f6b6457e0908390a3600080546001600160a01b0319169055565b6000838383604051602001620005769392919062001878565b6040516020818303038152906040528051906020012090505b9392505050565b6000546001600160a01b03163314620005c35760405162461bcd60e51b81526004016200037290620018d9565b6000839050620006568484836001600160a01b0316636f307dc36040518163ffffffff1660e01b8152600401602060405180830381600087803b1580156200060a57600080fd5b505af11580156200061f573d6000803e3d6000fd5b505050506040513d601f19601f82011682018060405250810190620006459190620013df565b6001600160a01b0316919062000dc6565b604051635f59c31f60e11b81526001600160a01b0382169063beb3863e906200068a908990899088908890600401620018a8565b600060405180830381600087803b158015620006a557600080fd5b505af1158015620006ba573d6000803e3d6000fd5b50505050505050505050565b6000546001600160a01b03163314620006f35760405162461bcd60e51b81526004016200037290620018d9565b620006fe83620003d1565b6200075d5760405162461bcd60e51b815260206004820152602860248201527f696e636f72726563742073747265616d4b65792c2073747265616d20646f65736044820152671b9d08195e1a5cdd60c21b606482015260840162000372565b8060006200076d60018562001979565b90506000826001600160a01b031663285939846040518163ffffffff1660e01b815260040160206040518083038186803b158015620007ab57600080fd5b505afa158015620007c0573d6000803e3d6000fd5b505050506040513d601f19601f82011682018060405250810190620007e69190620016ea565b9050826001600160a01b03166379599f966040518163ffffffff1660e01b8152600401602060405180830381600087803b1580156200082457600080fd5b505af115801562000839573d6000803e3d6000fd5b505050506040513d601f19601f820116820180604052508101906200085f9190620016ea565b506000958652600260209081526040808820938852929052942093909355505050565b6000546001600160a01b03163314620008af5760405162461bcd60e51b81526004016200037290620018d9565b620008ba82620003d1565b620009145760405162461bcd60e51b815260206004820152602360248201527f696e636f7272656374206d6574612c2073747265616d20646f65736e742065786044820152621a5cdd60ea1b606482015260840162000372565b60008281526001602052604090205461010090046001600160a01b03166040516340c10f1960e01b81526001600160a01b0385811660048301526024820184905291909116906340c10f1990604401620004ad565b60008181526001602052604081205461010090046001600160a01b03166001600160a01b03166318160ddd6040518163ffffffff1660e01b815260040160206040518083038186803b158015620009bf57600080fd5b505afa158015620009d4573d6000803e3d6000fd5b505050506040513d601f19601f82011682018060405250810190620009fa9190620016ea565b92915050565b6000546001600160a01b0316331462000a2d5760405162461bcd60e51b81526004016200037290620018d9565b62000a436001600160a01b038416838362000d61565b505050565b6000546001600160a01b0316331462000a755760405162461bcd60e51b81526004016200037290620018d9565b6001600160a01b03811662000adc5760405162461bcd60e51b815260206004820152602660248201527f4f776e61626c653a206e6577206f776e657220697320746865207a65726f206160448201526564647265737360d01b606482015260840162000372565b600080546040516001600160a01b03808516939216917f8be0079c531659141344cd1fd0a4f28419497f9722a3daafe3b4186f6b6457e091a3600080546001600160a01b0319166001600160a01b0392909216919091179055565b60008281526001602090815260408083205481516318160ddd60e01b8152915184936101009092046001600160a01b0316926318160ddd926004808301939192829003018186803b15801562000b8c57600080fd5b505afa15801562000ba1573d6000803e3d6000fd5b505050506040513d601f19601f8201168201806040525081019062000bc79190620016ea565b90506000836001600160a01b031663419323f16040518163ffffffff1660e01b815260040160206040518083038186803b15801562000c0557600080fd5b505afa15801562000c1a573d6000803e3d6000fd5b505050506040513d601f19601f8201168201806040525081019062000c409190620016ea565b905062000c4e828262001936565b95945050505050565b6000546001600160a01b0316331462000c845760405162461bcd60e51b81526004016200037290620018d9565b600062000c938585856200055d565b905060608062000ca587868662000ef3565b9092509050600062000cbf6000546001600160a01b031690565b84848460405162000cd09062001323565b62000cdf949392919062001826565b604051809103906000f08015801562000cfc573d6000803e3d6000fd5b5060408051808201825260018082526001600160a01b0393841660208084019182526000998a5291909152919096209551865491516001600160a81b0319909216901515610100600160a81b0319161761010091909216021790935550505050505050565b6040516001600160a01b03831660248201526044810182905262000a4390849063a9059cbb60e01b906064015b60408051601f198184030181529190526020810180516001600160e01b03166001600160e01b03199093169290921790915262000f64565b80158062000e545750604051636eb1769f60e11b81523060048201526001600160a01b03838116602483015284169063dd62ed3e9060440160206040518083038186803b15801562000e1757600080fd5b505afa15801562000e2c573d6000803e3d6000fd5b505050506040513d601f19601f8201168201806040525081019062000e529190620016ea565b155b62000ec15760405162461bcd60e51b815260206004820152603660248201527f5361666545524332303a20617070726f76652066726f6d206e6f6e2d7a65726f60448201527520746f206e6f6e2d7a65726f20616c6c6f77616e636560501b606482015260840162000372565b6040516001600160a01b03831660248201526044810182905262000a4390849063095ea7b360e01b9060640162000d8e565b606080600062000f03856200103d565b90506000848260405160200162000f1c9291906200174f565b6040516020818303038152906040529050600087868460405160200162000f46939291906200179c565b60408051808303601f19018152919052989197509095505050505050565b600062000fbb826040518060400160405280602081526020017f5361666545524332303a206c6f772d6c6576656c2063616c6c206661696c6564815250856001600160a01b03166200119a9092919063ffffffff16565b80519091501562000a43578080602001905181019062000fdc91906200147a565b62000a435760405162461bcd60e51b815260206004820152602a60248201527f5361666545524332303a204552433230206f7065726174696f6e20646964206e6044820152691bdd081cdd58d8d9595960b21b606482015260840162000372565b606081620010625750506040805180820190915260018152600360fc1b602082015290565b8160005b81156200109257806200107981620019c6565b91506200108a9050600a8362001936565b915062001066565b60008167ffffffffffffffff811115620010bc57634e487b7160e01b600052604160045260246000fd5b6040519080825280601f01601f191660200182016040528015620010e7576020820181803683370190505b509050815b851562001191576200110060018262001979565b9050600062001111600a8862001936565b6200111e90600a62001957565b6200112a908862001979565b620011379060306200190e565b905060008160f81b9050808484815181106200116357634e487b7160e01b600052603260045260246000fd5b60200101906001600160f81b031916908160001a90535062001187600a8962001936565b97505050620010ec565b50949350505050565b6060620011ab8484600085620011b3565b949350505050565b606082471015620012165760405162461bcd60e51b815260206004820152602660248201527f416464726573733a20696e73756666696369656e742062616c616e636520666f6044820152651c8818d85b1b60d21b606482015260840162000372565b843b620012665760405162461bcd60e51b815260206004820152601d60248201527f416464726573733a2063616c6c20746f206e6f6e2d636f6e7472616374000000604482015260640162000372565b600080866001600160a01b0316858760405162001284919062001731565b60006040518083038185875af1925050503d8060008114620012c3576040519150601f19603f3d011682016040523d82523d6000602084013e620012c8565b606091505b5091509150620012da828286620012e5565b979650505050505050565b60608315620012f65750816200058f565b825115620013075782518084602001fd5b8160405162461bcd60e51b815260040162000372919062001863565b611b2e8062001a2a83390190565b600082601f83011262001342578081fd5b813567ffffffffffffffff80821115620013605762001360620019fa565b604051601f8301601f19908116603f011681019082821181831017156200138b576200138b620019fa565b81604052838152866020858801011115620013a4578485fd5b8360208701602083013792830160200193909352509392505050565b600060208284031215620013d2578081fd5b81356200058f8162001a10565b600060208284031215620013f1578081fd5b81516200058f8162001a10565b60008060006060848603121562001413578182fd5b8335620014208162001a10565b92506020840135620014328162001a10565b929592945050506040919091013590565b60008060006060848603121562001458578283fd5b8335620014658162001a10565b95602085013595506040909401359392505050565b6000602082840312156200148c578081fd5b815180151581146200058f578182fd5b600060208284031215620014ae578081fd5b5035919050565b60008060408385031215620014c8578182fd5b823591506020830135620014dc8162001a10565b809150509250929050565b60008060408385031215620014fa578182fd5b50508035926020909101359150565b6000806000606084860312156200151e578283fd5b83359250602084013591506040840135620015398162001a10565b809150509250925092565b60008060008060008060c087890312156200155d578182fd5b863595506020870135945060408701359350606087013592506080870135620015868162001a10565b915060a0870135620015988162001a10565b809150509295509295509295565b600080600060608486031215620015bb578283fd5b833567ffffffffffffffff811115620015d2578384fd5b620015e08682870162001331565b9350506020840135620014328162001a10565b6000806000806080858703121562001609578384fd5b843567ffffffffffffffff8082111562001621578586fd5b6200162f8883890162001331565b955060208701359150620016438262001a10565b909350604086013592506060860135908082111562001660578283fd5b506200166f8782880162001331565b91505092959194509250565b600080600080600060a0868803121562001693578283fd5b853567ffffffffffffffff811115620016aa578384fd5b620016b88882890162001331565b955050602086013593506040860135620016d28162001a10565b94979396509394606081013594506080013592915050565b600060208284031215620016fc578081fd5b5051919050565b600081518084526200171d81602086016020860162001993565b601f01601f19169290920160200192915050565b600082516200174581846020870162001993565b9190910192915050565b604f60f81b8152600083516200176d81600185016020880162001993565b602d60f81b60019184019182015283516200179081600284016020880162001993565b01600201949350505050565b752ab73932b0b61027bbb732b939b434b8102a37b5b2b760511b81526000602d60f81b8060168401528551620017da816017860160208a0162001993565b80840190508160178201528551620017fa816018840160208a0162001993565b0160188101919091528351906200181982601983016020880162001993565b0160190195945050505050565b60018060a01b03851681528360208201526080604082015260006200184f608083018562001703565b8281036060840152620012da818562001703565b6020815260006200058f602083018462001703565b6060815260006200188d606083018662001703565b6001600160a01b039490941660208301525060400152919050565b608081526000620018bd608083018762001703565b6020830195909552506040810192909252606090910152919050565b6020808252818101527f4f776e61626c653a2063616c6c6572206973206e6f7420746865206f776e6572604082015260600190565b600060ff821660ff84168060ff038211156200192e576200192e620019e4565b019392505050565b6000826200195257634e487b7160e01b81526012600452602481fd5b500490565b6000816000190483118215151615620019745762001974620019e4565b500290565b6000828210156200198e576200198e620019e4565b500390565b60005b83811015620019b057818101518382015260200162001996565b83811115620019c0576000848401525b50505050565b6000600019821415620019dd57620019dd620019e4565b5060010190565b634e487b7160e01b600052601160045260246000fd5b634e487b7160e01b600052604160045260246000fd5b6001600160a01b038116811462001a2657600080fd5b5056fe60c06040523480156200001157600080fd5b5060405162001b2e38038062001b2e8339810160408190526200003491620003b4565b8151829082906200004d9060049060208501906200025b565b508051620000639060059060208401906200025b565b5050506200008760008051602062001b0e833981519152336200015760201b60201c565b620000a260008051602062001aee8339815191523362000157565b620000cc60008051602062001aee83398151915260008051602062001b0e83398151915262000167565b620000e760008051602062001b0e8339815191528062000167565b82620001395760405162461bcd60e51b815260206004820152601860248201527f73747265616d4b65792063616e6e6f74206265206e756c6c0000000000000000604482015260640160405180910390fd5b505060609190911b6001600160601b03191660805260a05262000497565b620001638282620001bb565b5050565b600082815260208190526040902060010154819060405184907fbd79b86ffe0ab8e8776151514217cd7cacd52c909f66475c3af44e129f0b00ff90600090a460009182526020829052604090912060010155565b6000828152602081815260408083206001600160a01b038516845290915290205460ff1662000163576000828152602081815260408083206001600160a01b03851684529091529020805460ff19166001179055620002173390565b6001600160a01b0316816001600160a01b0316837f2f8788117e7eff1d82e926ec794901d17c78024a50270940304540a733656f0d60405160405180910390a45050565b828054620002699062000444565b90600052602060002090601f0160209004810192826200028d5760008555620002d8565b82601f10620002a857805160ff1916838001178555620002d8565b82800160010185558215620002d8579182015b82811115620002d8578251825591602001919060010190620002bb565b50620002e6929150620002ea565b5090565b5b80821115620002e65760008155600101620002eb565b600082601f83011262000312578081fd5b81516001600160401b03808211156200032f576200032f62000481565b604051601f8301601f19908116603f011681019082821181831017156200035a576200035a62000481565b8160405283815260209250868385880101111562000376578485fd5b8491505b838210156200039957858201830151818301840152908201906200037a565b83821115620003aa57848385830101525b9695505050505050565b60008060008060808587031215620003ca578384fd5b84516001600160a01b0381168114620003e1578485fd5b6020860151604087015191955093506001600160401b038082111562000405578384fd5b620004138883890162000301565b9350606087015191508082111562000429578283fd5b50620004388782880162000301565b91505092959194509250565b600181811c908216806200045957607f821691505b602082108114156200047b57634e487b7160e01b600052602260045260246000fd5b50919050565b634e487b7160e01b600052604160045260246000fd5b60805160601c60a05161160b620004e36000396000818161037601528181610fcf015261106e01526000818161039d01528181610f160152818161100501526110a4015261160b6000f3fe608060405234801561001057600080fd5b50600436106101585760003560e01c806375b238fc116100c3578063a9059cbb1161007c578063a9059cbb146102eb578063d5391393146102fe578063d547741f14610325578063dd62ed3e14610338578063ea9c629214610371578063f2f4eb261461039857600080fd5b806375b238fc1461027b57806391d14854146102a257806395d89b41146102b55780639dc29fac146102bd578063a217fddf146102d0578063a457c2d7146102d857600080fd5b80632f2ff15d116101155780632f2ff15d146101f5578063313ce5671461020a57806336568abe14610219578063395093511461022c57806340c10f191461023f57806370a082311461025257600080fd5b806301ffc9a71461015d57806306fdde0314610185578063095ea7b31461019a57806318160ddd146101ad57806323b872dd146101bf578063248a9ca3146101d2575b600080fd5b61017061016b366004611407565b6103d7565b60405190151581526020015b60405180910390f35b61018d61040e565b60405161017c91906114a4565b6101706101a83660046113a0565b6104a0565b6003545b60405190815260200161017c565b6101706101cd366004611360565b6104b6565b6101b16101e03660046113cb565b60009081526020819052604090206001015490565b6102086102033660046113e3565b61056c565b005b6040516012815260200161017c565b6102086102273660046113e3565b610597565b61017061023a3660046113a0565b610615565b61020861024d3660046113a0565b61064c565b6101b16102603660046112f0565b6001600160a01b031660009081526001602052604090205490565b6101b17fdf8b4c520ffe197c5343c6f5aec59570151ef9a492f2c624fd45ddde6135ec4281565b6101706102b03660046113e3565b6106cc565b61018d6106f5565b6102086102cb3660046113a0565b610704565b6101b1600081565b6101706102e63660046113a0565b610784565b6101706102f93660046113a0565b61081f565b6101b17ff0887ba65ee2024ea881d91b74c2450ef19e1557f03bed3ea9f16b037cbe2dc981565b6102086103333660046113e3565b61082c565b6101b1610346366004611328565b6001600160a01b03918216600090815260026020908152604080832093909416825291909152205490565b6101b17f000000000000000000000000000000000000000000000000000000000000000081565b6103bf7f000000000000000000000000000000000000000000000000000000000000000081565b6040516001600160a01b03909116815260200161017c565b60006001600160e01b03198216637965db0b60e01b148061040857506301ffc9a760e01b6001600160e01b03198316145b92915050565b60606004805461041d9061156c565b80601f01602080910402602001604051908101604052809291908181526020018280546104499061156c565b80156104965780601f1061046b57610100808354040283529160200191610496565b820191906000526020600020905b81548152906001019060200180831161047957829003601f168201915b5050505050905090565b60006104ad338484610852565b50600192915050565b60006104c3848484610977565b6001600160a01b03841660009081526002602090815260408083203384529091529020548281101561054d5760405162461bcd60e51b815260206004820152602860248201527f45524332303a207472616e7366657220616d6f756e74206578636565647320616044820152676c6c6f77616e636560c01b60648201526084015b60405180910390fd5b610561853361055c868561150e565b610852565b506001949350505050565b6000828152602081905260409020600101546105888133610b5a565b6105928383610bbe565b505050565b6001600160a01b03811633146106075760405162461bcd60e51b815260206004820152602f60248201527f416363657373436f6e74726f6c3a2063616e206f6e6c792072656e6f756e636560448201526e103937b632b9903337b91039b2b63360891b6064820152608401610544565b6106118282610c42565b5050565b3360008181526002602090815260408083206001600160a01b038716845290915281205490916104ad91859061055c9086906114d7565b6106767ff0887ba65ee2024ea881d91b74c2450ef19e1557f03bed3ea9f16b037cbe2dc9336106cc565b6106c25760405162461bcd60e51b815260206004820152601a60248201527f4d696e7461626c65546f6b656e3a206f6e6c79206d696e7465720000000000006044820152606401610544565b6106118282610ca7565b6000918252602082815260408084206001600160a01b0393909316845291905290205460ff1690565b60606005805461041d9061156c565b61072e7ff0887ba65ee2024ea881d91b74c2450ef19e1557f03bed3ea9f16b037cbe2dc9336106cc565b61077a5760405162461bcd60e51b815260206004820152601a60248201527f4d696e7461626c65546f6b656e3a206f6e6c79206d696e7465720000000000006044820152606401610544565b6106118282610d92565b3360009081526002602090815260408083206001600160a01b0386168452909152812054828110156108065760405162461bcd60e51b815260206004820152602560248201527f45524332303a2064656372656173656420616c6c6f77616e63652062656c6f77604482015264207a65726f60d81b6064820152608401610544565b610815338561055c868561150e565b5060019392505050565b60006104ad338484610977565b6000828152602081905260409020600101546108488133610b5a565b6105928383610c42565b6001600160a01b0383166108b45760405162461bcd60e51b8152602060048201526024808201527f45524332303a20617070726f76652066726f6d20746865207a65726f206164646044820152637265737360e01b6064820152608401610544565b6001600160a01b0382166109155760405162461bcd60e51b815260206004820152602260248201527f45524332303a20617070726f766520746f20746865207a65726f206164647265604482015261737360f01b6064820152608401610544565b6001600160a01b0383811660008181526002602090815260408083209487168084529482529182902085905590518481527f8c5be1e5ebec7d5bd14f71427d1e84f3dd0314c0f7b2291e5b200ac8c7c3b92591015b60405180910390a3505050565b6001600160a01b0383166109db5760405162461bcd60e51b815260206004820152602560248201527f45524332303a207472616e736665722066726f6d20746865207a65726f206164604482015264647265737360d81b6064820152608401610544565b6001600160a01b038216610a3d5760405162461bcd60e51b815260206004820152602360248201527f45524332303a207472616e7366657220746f20746865207a65726f206164647260448201526265737360e81b6064820152608401610544565b610a48838383610eed565b6001600160a01b03831660009081526001602052604090205481811015610ac05760405162461bcd60e51b815260206004820152602660248201527f45524332303a207472616e7366657220616d6f756e7420657863656564732062604482015265616c616e636560d01b6064820152608401610544565b610aca828261150e565b6001600160a01b038086166000908152600160205260408082209390935590851681529081208054849290610b009084906114d7565b92505081905550826001600160a01b0316846001600160a01b03167fddf252ad1be2c89b69c2b068fc378daa952ba7f163c4a11628f55a4df523b3ef84604051610b4c91815260200190565b60405180910390a350505050565b610b6482826106cc565b61061157610b7c816001600160a01b03166014611107565b610b87836020611107565b604051602001610b9892919061142f565b60408051601f198184030181529082905262461bcd60e51b8252610544916004016114a4565b610bc882826106cc565b610611576000828152602081815260408083206001600160a01b03851684529091529020805460ff19166001179055610bfe3390565b6001600160a01b0316816001600160a01b0316837f2f8788117e7eff1d82e926ec794901d17c78024a50270940304540a733656f0d60405160405180910390a45050565b610c4c82826106cc565b15610611576000828152602081815260408083206001600160a01b0385168085529252808320805460ff1916905551339285917ff6391f5c32d9c69d2a47ea670b442974b53935d1edc7fd64eb21e047a839171b9190a45050565b6001600160a01b038216610cfd5760405162461bcd60e51b815260206004820152601f60248201527f45524332303a206d696e7420746f20746865207a65726f2061646472657373006044820152606401610544565b610d0960008383610eed565b8060036000828254610d1b91906114d7565b90915550506001600160a01b03821660009081526001602052604081208054839290610d489084906114d7565b90915550506040518181526001600160a01b038316906000907fddf252ad1be2c89b69c2b068fc378daa952ba7f163c4a11628f55a4df523b3ef9060200160405180910390a35050565b6001600160a01b038216610df25760405162461bcd60e51b815260206004820152602160248201527f45524332303a206275726e2066726f6d20746865207a65726f206164647265736044820152607360f81b6064820152608401610544565b610dfe82600083610eed565b6001600160a01b03821660009081526001602052604090205481811015610e725760405162461bcd60e51b815260206004820152602260248201527f45524332303a206275726e20616d6f756e7420657863656564732062616c616e604482015261636560f01b6064820152608401610544565b610e7c828261150e565b6001600160a01b03841660009081526001602052604081209190915560038054849290610eaa90849061150e565b90915550506040518281526000906001600160a01b038516907fddf252ad1be2c89b69c2b068fc378daa952ba7f163c4a11628f55a4df523b3ef9060200161096a565b6001600160a01b03831615801590610f0d57506001600160a01b03821615155b8015610fbb57507f00000000000000000000000000000000000000000000000000000000000000006001600160a01b031663c5f956af6040518163ffffffff1660e01b815260040160206040518083038186803b158015610f6d57600080fd5b505afa158015610f81573d6000803e3d6000fd5b505050506040513d601f19601f82011682018060405250810190610fa5919061130c565b6001600160a01b0316836001600160a01b031614155b1561059257604051632633ae0560e11b81527f000000000000000000000000000000000000000000000000000000000000000060048201526001600160a01b0384811660248301527f00000000000000000000000000000000000000000000000000000000000000001690634c675c0a90604401600060405180830381600087803b15801561104957600080fd5b505af115801561105d573d6000803e3d6000fd5b5050604051632633ae0560e11b81527f000000000000000000000000000000000000000000000000000000000000000060048201526001600160a01b0385811660248301527f0000000000000000000000000000000000000000000000000000000000000000169250634c675c0a9150604401600060405180830381600087803b1580156110ea57600080fd5b505af11580156110fe573d6000803e3d6000fd5b50505050505050565b606060006111168360026114ef565b6111219060026114d7565b67ffffffffffffffff81111561114757634e487b7160e01b600052604160045260246000fd5b6040519080825280601f01601f191660200182016040528015611171576020820181803683370190505b509050600360fc1b8160008151811061119a57634e487b7160e01b600052603260045260246000fd5b60200101906001600160f81b031916908160001a905350600f60fb1b816001815181106111d757634e487b7160e01b600052603260045260246000fd5b60200101906001600160f81b031916908160001a90535060006111fb8460026114ef565b6112069060016114d7565b90505b600181111561129a576f181899199a1a9b1b9c1cb0b131b232b360811b85600f166010811061124857634e487b7160e01b600052603260045260246000fd5b1a60f81b82828151811061126c57634e487b7160e01b600052603260045260246000fd5b60200101906001600160f81b031916908160001a90535060049490941c9361129381611555565b9050611209565b5083156112e95760405162461bcd60e51b815260206004820181905260248201527f537472696e67733a20686578206c656e67746820696e73756666696369656e746044820152606401610544565b9392505050565b600060208284031215611301578081fd5b81356112e9816115bd565b60006020828403121561131d578081fd5b81516112e9816115bd565b6000806040838503121561133a578081fd5b8235611345816115bd565b91506020830135611355816115bd565b809150509250929050565b600080600060608486031215611374578081fd5b833561137f816115bd565b9250602084013561138f816115bd565b929592945050506040919091013590565b600080604083850312156113b2578182fd5b82356113bd816115bd565b946020939093013593505050565b6000602082840312156113dc578081fd5b5035919050565b600080604083850312156113f5578182fd5b823591506020830135611355816115bd565b600060208284031215611418578081fd5b81356001600160e01b0319811681146112e9578182fd5b7f416363657373436f6e74726f6c3a206163636f756e7420000000000000000000815260008351611467816017850160208801611525565b7001034b99036b4b9b9b4b733903937b6329607d1b6017918401918201528351611498816028840160208801611525565b01602801949350505050565b60208152600082518060208401526114c3816040850160208701611525565b601f01601f19169190910160400192915050565b600082198211156114ea576114ea6115a7565b500190565b6000816000190483118215151615611509576115096115a7565b500290565b600082821015611520576115206115a7565b500390565b60005b83811015611540578181015183820152602001611528565b8381111561154f576000848401525b50505050565b600081611564576115646115a7565b506000190190565b600181811c9082168061158057607f821691505b602082108114156115a157634e487b7160e01b600052602260045260246000fd5b50919050565b634e487b7160e01b600052601160045260246000fd5b6001600160a01b03811681146115d257600080fd5b5056fea2646970667358221220e09680834ba7d744ff713b4f95bb22d039a2735f96df82a15ba9e68ec74206b464736f6c63430008040033f0887ba65ee2024ea881d91b74c2450ef19e1557f03bed3ea9f16b037cbe2dc9df8b4c520ffe197c5343c6f5aec59570151ef9a492f2c624fd45ddde6135ec42a264697066735822122031ecd20dba62afeb85de1f49f52619ef81eb5e1f1401724dc03a534714f0996664736f6c63430008040033",
  "linkReferences": {},
  "deployedLinkReferences": {}
}